:020000040800F2
:10000000880A0020510E00085D0400085F04000803
:1000100063040008670400086B0400080000000087
:100020000000000000000000000000006F04000855
:100030007104000800000000730400087504000843
:100040006B0E00086B0E00086B0E00086B0E0008AC
:100050006B0E00086B0E00086B0E00086B0E00089C
:100060006B0E00086B0E00086B0E00086B0E00088C
:100070006B0E00086B0E00086B0E00086B0E00087C
:100080006B0E00086B0E00086B0E00086B0E00086C
:100090006B0E00086B0E00086B0E00086B0E00085C
:1000A0006B0E00086B0E00086B0E00086B0E00084C
:1000B0004D0A0008D10900086B0E00086B0E0008FD
:1000C0006B0E00086B0E00086B0E00086B0E00082C
:1000D0006B0E0008C70D00086B0E0008850A0008AB
:1000E0006B0E00086B0E00086B0E00086B0E00080C
:1000F0006B0E00086B0E00086B0E00086B0E0008FC
:100100006B0E00086B0E00086B0E00086B0E0008EB
:100110006B0E00086B0E00086B0E00086B0E0008DB
:100120006B0E00086B0E00086B0E00086B0E0008CB
:100130006B0E00086B0E00086B0E00086B0E0008BB
:100140006B0E00086B0E00086B0E00086B0E0008AB
:100150006B0E00086B0E00086B0E00086B0E00089B
:100160006B0E00086B0E00086B0E00086B0E00088B
:100170006B0E00086B0E00086B0E00086B0E00087B
:100180006B0E00086B0E000800F002F800F092F809
:100190000AA090E8000C82448344AAF10107DA45E2
:1001A00001D100F087F8AFF2090EBAE80F0013F0A2
:1001B000010F18BFFB1A43F001031847644B0000FE
:1001C000844B0000103A24BF78C878C1FAD852078F
:1001D00024BF30C830C144BF04680C6070470000C1
:1001E0000023002400250026103A28BF78C1FBD840
:1001F000520728BF30C148BF0B6070476E2902F01C
:10020000C587702903F01981662904F01B856529CB
:1002100004F01885672904F015856129AFF3008083
:1002200003681B0A28BF41F08001692902F0728728
:10023000642902F06F87752902F06C876F2903F03B
:10024000A780782903F0E580E92903F04180E429BB
:1002500003F03E80F52903F03B80EF2903F0A480F2
:10026000F82903F0E4800368DB0928BF41F080012E
:10027000632903F06684732903F06B84E32903F098
:100280007684F32903F07B84002070471FB504F0C7
:10029000D4FC03F0C9FC04000020002104F0B0F9F4
:1002A000401C60600020002104F094F9E0601FBD54
:1002B00010B510BD03F08BFC1146FFF7E7FF00F00F
:1002C00009F803F063FD03B4FFF7F2FF03BC00F08D
:1002D0001BFD00002DED048B82B00020019000BFBB
:1002E00000274FF4A06000F0D3FDA82000F08AFCA6
:1002F0004FF4E13000F015FD4FF4E13000F0F0FB79
:1003000042F2CF0140F2E73000F036FB00F03EFA57
:1003100000F0BAF900F0AAFA00F010FB394600200C
:1003200001F0CEF800203E49086078E00121052068
:1003300000F080FA054600EE105AB8EE400A10EEC2
:10034000100A04F009FC41EC180B9FED360B53EC3E
:10035000102B04F003FB41EC190B344800680A2809
:1003600013DB00203149086031A002F041FE32A0C9
:1003700000F018FC0521324801F0C6FE00BF402104
:100380002F4801F071FF0128F9D12E48008800F4B0
:100390000040C0B12B480088C0F30D0600240DE0DA
:1003A0002948015D264801F0AFFE00BF40212448E6
:1003B00001F05AFF0128F9D1601CC4B2B442EFDB4E
:1003C0000020204908802148008800F4004030B314
:1003D0001E480088C0F30D06701E1D49085C0128E8
:1003E00008D1B01E085C28B90D480068C0431949FF
:1003F000C1F8A40200240DE01548015D164801F083
:1004000083FE00BF4021144801F02EFF0128F9D1DE
:10041000601CC4B2B442EFDB00200C49088085E7C1
:10042000A48242426666666666664A3F18000020FD
:10043000746573740D0A0000746573740000000025
:10044000004800401C000020D001002028000020AF
:10045000600300200080424200100140704700BF4E
:10046000FEE700BFFEE700BFFEE700BFFEE7704704
:1004700070477047704700000CB500200190009055
:100480007648006840F480307449086000BF7348C3
:10049000006800F4003000900198401C0190009822
:1004A00018B90198B0F5A04FF1D16C48006800F47C
:1004B000003010B10120009001E000200090009871
:1004C000012846D165484030006840F080506349BB
:1004D000403108606248006840F44040604908606C
:1004E0005E48083000685D490831086008460068C9
:1004F00040F4004008600846006840F4A0500860DE
:100500005848091F0860081F006840F08070091FE4
:10051000086000BF5148006800F000700028F9D062
:1005200040F20570504908604C480830006820F0DF
:1005300003004A49083108600846006840F002009C
:10054000086000BF45480830006800F00C0008282B
:10055000F8D10CBD10B54548006840F4700043491F
:1005600008603E48006840F001003C4908600020F7
:100570003A4908310860394800683D490840374920
:1005800008603C48091D0860081F006820F48020AE
:10059000091F0860002031490C310860FFF76CFF2B
:1005A0004FF0006031498039086010BD70B50020FF
:1005B0000022022300240221284D08352D6805F071
:1005C0000C0020B1042806D0082834D107E02A4DB9
:1005D0002A4E356033E02A4D284E35602FE01F4DFE
:1005E0002D1D2D68C5F380541C4D2D1D2D6805F063
:1005F0003F0154B1224DB5FBF1F5184E361D36685A
:10060000C6F3881605FB06F209E01B4DB5FBF1F5B4
:10061000124E361D3668C6F3881605FB06F20F4DDE
:100620002D1D2D68C5F301456D1C6B00B2FBF3F564
:10063000124E356003E0104D104E356000BF00BF14
:10064000064D08352D68C5F303150E4E705D0B4D34
:100650002D68C540094E356070BD0000003802406D
:100660000070004008544007003C024088ED00E064
:10067000FFFFF6FE103000240024F40000000020EC
:1006800000127A00040000201CB50121112001F0A5
:10069000CDFA1C20009000208DF8040003208DF876
:1006A000050001208DF807006946354801F020F863
:1006B0000120009002208DF807006946314801F0C2
:1006C00017F81CBD10B5044614B101202E4908705E
:1006D0002D480078002837D01021294801F06AF809
:1006E00078B10821264801F065F850B1042124486A
:1006F00001F060F828B10121224801F05BF80128DF
:1007000022D10A2000F0E0FA00201F4908701021D1
:100710001B4801F04FF808B9012010BD0821184806
:1007200001F048F808B90220F7E70421144801F065
:1007300041F808B90320F0E70121124801F03AF826
:1007400001281BD10420E8E710210D4801F032F800
:10075000012813D108210A4801F02CF801280DD1F5
:100760000421074801F026F8012807D10121054896
:1007700001F020F810B90120034908700020CCE7EF
:1007800000100240000002401400002000B58DB0AF
:100790000121084601F04AFA0121080201F0A0FAFD
:1007A00020200B9003208DF8300000208DF83300BE
:1007B0000BA92C4800F09CFF0121080201F0E5FA8A
:1007C00000214FF4807001F0E0FA002007900A90B9
:1007D0000990089007A800F005FC002001908DF812
:1007E000080001208DF809000020039005900120E9
:1007F0008DF8180001A91C4800F0C5FB01211A481A
:1008000000F007FC0DB000BD10B50446072301221F
:100810002146154800F03DFC134800F096FC00BF4F
:100820000221114800F0B2FD0028F9D00E4800F076
:10083000C8FC10BD2DE9F04107460C4600250026F6
:1008400008E03846FFF7E0FF0544052000F03CFAD9
:10085000701CC6B2A642F4DBB5FBF4F080B2BDE872
:10086000F0810000000002400020014000B587B088
:100870000121084601F0DAF90121480701F01FFAC9
:100880008020059003208DF8180002208DF81B00B1
:1008900005A9234800F02CFF00200190029003904E
:1008A000049001A900F0A1FD0121002000F0BAFD93
:1008B0000021084600F004FE07B000BD70B52DED24
:1008C000048B0446204604F036F841EC180B9FEDEB
:1008D000150B53EC102B51EC180B03F0A7FE41EC59
:1008E000180B9FED120B53EC102B51EC180B04F06E
:1008F00035F841EC190B9FED0F0B53EC102B03F067
:1009000095FE41EC180B51EC180B03F0E7FF85B294
:100910002946002000F0D4FDBDEC048B70BD000022
:10092000000002400000000000408F400000000076
:100930000000B0406666666666660A401CB5012126
:10094000084601F073F90420009001208DF804009E
:1009500000208DF8060003208DF8050001208DF899
:1009600007006946034800F0C3FE0421014800F077
:100970003DFF1CBD000002407FB505460C4601212D
:10098000022001F09CF90295ADF804400020ADF87A
:100990000600ADF80C0001A9374801F072FD0122F4
:1009A0001146354802F00EFA0121334801F0F2FDFC
:1009B0001D208DF8000001208DF8010003208DF826
:1009C000020001208DF80300684600F066FA7FBD42
:1009D00010B50121284802F00CFA012804D127485B
:1009E0000068401C254908600121234802F012FAE2
:1009F00010BD7FB505460C460121084601F05FF9A0
:100A00000195ADF800400020ADF80800ADF80200F7
:100A100069464FF0804001F034FD012211469007F5
:100A200002F0D0F90121880701F0B4FD1C208DF8F7
:100A30000C0000208DF80D0002208DF80E00012022
:100A40008DF80F0003A800F028FA7FBD10B5012132
:100A5000880702F0CEF970B10948008840F40040E0
:100A6000074908800121880702F0D4F900214FF0DE
:100A7000804001F08FFD10BD0004004018000020F0
:100A80001C00002010B52021584801F0EDFBF8B102
:100A9000564801F03DFBC4B25548008800F40040C0
:100AA000B0B953480088B0F5C87F12DA0021514828
:100AB00001F030FD4E48008818B901214D4801F081
:100AC00069FD4B490888411C494A11804A490C5428
:100AD00005E04748008840F400404549088010BDC3
:100AE00010B588B00446414801F0F4F90121022014
:100AF00001F09CF80121880401F0E1F84FF4406016
:100B0000059002208DF818008DF8190000208DF84E
:100B10001A0001208DF81B0005A9384800F0E8FDF7
:100B200007220B21354800F06EFE07220A213348C8
:100B300000F069FE01940020ADF80800ADF80A004D
:100B4000ADF80C00ADF810000C20ADF80E0001A9B6
:100B5000264801F026FA012240F22551234801F0EF
:100B60005EFB0121214801F0A4FA27208DF81C002A
:100B700002208DF81D0003208DF81E0001208DF845
:100B80001F0007A800F089F942F2CF016320FFF7A8
:100B900030FF0021174801F0FDFC002014490880B7
:100BA00008B010BD0FB438B505A800901448009ADD
:100BB000049902F00BFA00200090114802F024FA88
:100BC00085B200240DE000BF4021084801F04CFB35
:100BD0000028F9D00A48015D044801F095FA601C2C
:100BE00084B2AC42EFDB38BC5DF814FB0048004037
:100BF0001C00002000140040D0010020000402402E
:100C00004000002010B504466FF0040000F092F997
:100C1000E11704EB5171C1F3C701394A1170104655
:100C2000007800EB4001C1EBC0104FF6FF7101EA04
:100C3000C0003449088010BD0146314A12784A4349
:100C40004FF0E0235A6100229A611A46126942F07D
:100C500001021A6100BF4FF0E022106900F00102AA
:100C60001AB100F48032002AF5D04FF0E022126968
:100C700022F001024FF0E0231A6100229A617047CE
:100C80000146204A12884A434FF0E0235A6100226D
:100C90009A611A46126942F001021A6100BF4FF0D0
:100CA000E022106900F001021AB100F48032002A3B
:100CB000F5D04FF0E022126922F001024FF0E0235C
:100CC0001A6100229A61704770B504464FF40770AC
:100CD00094FBF0F0C6B24FF4077094FBF0F100FB08
:100CE000114085B205E04FF40770FFF7C9FF701E91
:100CF000C6B2002EF7D115B12846FFF7C1FF70BD6F
:100D00001E0000202000002000BF704700BF4C4A9A
:100D1000128802F04002002AF9D0C2B2484B9A80F1
:100D2000704710B588B004460121084600F07EFFE8
:100D30000121102000F0D4FF07220921414800F0D2
:100D400062FD07220A213F4800F05DFD4FF4C060BC
:100D5000069002208DF81C008DF81D0000208DF8F3
:100D60001E0001208DF81F0006A9364800F0C0FCC7
:100D700002940020ADF80C00ADF80E00ADF81000A4
:100D8000ADF814000C20ADF8120002A92C4801F0B7
:100D900008F901212A4801F08CF9012240F225517D
:100DA000274801F03CFA25208DF8040003208DF837
:100DB00005008DF8060001208DF8070001A800F05D
:100DC0006CF808B010BD10B540F225511C4801F078
:100DD00061FA10B31A4801F09BF9C4B21A480088AE
:100DE00000F40040C8B91848008800F4804060B1A1
:100DF0000A2C03D000201449088020E01248008803
:100E000040F400401049088019E00D2C06D10E482E
:100E1000008840F480400C49088010E00A480088AF
:100E2000C0F30D0009490C5407480088401C0649CE
:100E3000088008460088C72801DD0020088010BD12
:100E40000010014000000240280000206003002044
:100E50000948804709480047FEE7FEE7FEE7FEE74E
:100E6000FEE7FEE7FEE7FEE7FEE7FEE7044805498A
:100E7000054A064B70470000550500088901000827
:100E800088040020880A00208806002088060020A8
:100E900032490143324A1160704770B50021002386
:100EA0000F22C4781CB32E4C246804F4E064C4F50B
:100EB000E064C4F30721C1F10404E3B20A414478B9
:100EC0009C40E1B28478144021430C07210E254C4C
:100ED00005786155047804F01F050124AC400578BD
:100EE0006D11AD0005F1E025C5F8004109E0047879
:100EF00004F01F050124AC401B4D0678761145F81F
:100F0000264070BD194A0A400243154B1B1F1A6048
:100F1000704739B1124A121D12680243104B1B1D53
:100F20001A6006E00E4A121D126882430C4B1B1D0C
:100F30001A607047042808D14FF0E021096941F098
:100F400004014FF0E022116107E04FF0E021096950
:100F500021F004014FF0E022116170470000FA0512
:100F60000CED00E000E400E080E100E080FFFF1F06
:100F700010B50121080200F008FF00214FF4807035
:100F800000F003FF10BD30B502460020002350687A
:100F9000F84C20400D790C6844EA05242043506049
:100FA0009068F54C2040D1E903542C438D682C43C4
:100FB0004D7944EA450420439060D06A20F47000E3
:100FC0000C7D641EE4B2234340EA0350D06230BD7E
:100FD00000210160017141718160C16001610121E5
:100FE000017570470021E54A1168E54A1140D0E9D2
:100FF00000231A4383681A43C3681A431143E14A22
:10100000C2F8041370470021016041608160C16033
:10101000704721B1826842F00102826003E0826879
:1010200022F00102826070470A4600214168D64BD7
:1010300019401143416070474162826270470A461D
:101040000021416821F01F0111434160704738B110
:10105000CA49096841F40001CA4AC2F8041306E00B
:10106000C649096821F40001C64AC2F80413704752
:1010700038B1C249096841F48001C24AC2F8041378
:1010800006E0BE49096821F48001BE4AC2F8041393
:101090007047F0B504460D4600200021092D11DDF2
:1010A000E068A5F10A0606EB4607072606FA07F1EF
:1010B0008843A5F10A0606EB460603FA06F1084343
:1010C000E0600CE0206905EB4507072606FA07F10A
:1010D000884305EB450603FA06F108432061072A19
:1010E0000FDA606B561E06EB86071F2606FA07F11D
:1010F0008843561E06EB860605FA06F10843606330
:1011000022E00D2A0FDA206BD61F06EB86071F267A
:1011100006FA07F18843D61F06EB860605FA06F1A4
:101120000843206310E0E06AA2F10D0606EB860793
:101130001F2606FA07F18843A2F10D0606EB860684
:1011400005FA06F10843E062F0BD816841F0804194
:1011500081607047014600208A6802F080420AB12F
:10116000012000E00020704721B1826842F48062D3
:10117000826003E0826822F480628260704721B15D
:10118000826842F00202826003E0826822F002027A
:101190008260704710B50A4600210023416821F49F
:1011A0006041531E41EA4331416010BD21B14268A4
:1011B00042F40062426003E0426822F4006242604E
:1011C00070470146C86C80B270476C48001D0068CB
:1011D000704721B1826842F48072826003E08268C5
:1011E00022F480728260704721B1826842F40072FA
:1011F000826003E0826822F400728260704738B136
:101200005E49096841F400515E4AC2F8041306E0E1
:101210005A49096821F400515A4AC2F80413704728
:10122000F0B504461546002000220026092911DDEC
:10123000E068A1F10A0707EB470C072707FA0CF251
:101240009043A1F10A0707EB470703FA07F210439F
:10125000E0600CE0206901EB410C072707FA0CF273
:10126000904301EB410703FA07F210432061A06BA2
:10127000C0F30156EF1C06F1010CA7EB0C0707EBBE
:10128000870C1F2707FA0CF29043EF1C06F1010CA4
:10129000A7EB0C0707EB870701FA07F21043A063DF
:1012A000F0BD10B50A4600210023816B21F44011E6
:1012B000531E41EA0351816310BD08B5002300931A
:1012C0000090009B0B440093009B1A6008BD0A46E7
:1012D0000021816821F470211143816070470A4622
:1012E0000021816821F440111143816070478168B9
:1012F00041F4800181607047014600208A6802F451
:1013000080020AB1012000E00020704721B142684C
:1013100042F48062426003E0426822F480624260EC
:10132000704721B1426842F48052426003E0426853
:1013300022F480524260704708B5024600200090B7
:10134000009201F12800009B18440090009800686A
:1013500080B208BD10B50B460021D9B2012404FAB1
:1013600001F11AB144680C43446002E044688C43C4
:10137000446010BDFFFEFFFCFDF7FFC004230140E9
:10138000E030FCFF00200140FFFD3FFF024600204F
:1013900013680B400BB1012000E000207047CA43E6
:1013A0000260704770B502460020002300240B1233
:1013B000556801268E4005EA060415681D4015B1E2
:1013C0000CB1012000E0002070BD00220A12D343BE
:1013D0000360704710B50121480700F0C5FC0021EB
:1013E0004FF0005000F0C0FC10BD30B500220023CB
:1013F0007B4C226840F6FE748440A243D1E900454C
:101400002C438D682C43CD6844EA050303FA00F4AD
:101410002243734C226030BD002101604160816035
:10142000C160704739B16E4A1268012383401A4384
:101430006B4B1A6006E06A4A1268012383409A43A4
:10144000674B1A60704710B551B1654A121D12689A
:1014500004090123A3401A43614B1B1D1A6009E0D4
:101460005F4A121D126804090123A3409A435C4B92
:101470001B1D1A6010BD40B15949091D096841F092
:101480000301574A121D116007E05549091D0968FB
:1014900021F00301524A121D1160704710B53AB194
:1014A0004F4B1B6801FA00F423434D4C236006E0C8
:1014B0004B4B1B6801FA00F4A343494C236010BD59
:1014C00008B500220092464A009200F10802009BF3
:1014D0001A440092009A116008BD08B500220092DB
:1014E0003F4A009200F11402009B1A440092009AB5
:1014F000116008BD30B500240023082802D142EA5B
:10150000012401E042EA0144354B00F120052B445F
:101510001C6030BD08B501460020009030480090A6
:101520002C2000EB9100009A104400900098006875
:1015300080B208BD41B12A4A12684FF480538340FB
:101540001A43274B1A6007E0254A12684FF480536C
:1015500083409A43224B1A60704710B53AB1204B32
:101560001B6801FA00F423431D4C236006E01C4B6A
:101570001B6801FA00F4A343194C236010BD10B599
:1015800002460020164B34331B6801FA02F4234054
:101590000BB1012000E0002010BD01FA00F2104B59
:1015A00034331A60704730B50246002000230C4CDB
:1015B000246801FA02F504EA0503094C343424686E
:1015C00001FA02F52C4014B10BB1012000E000201B
:1015D00030BD01FA00F2024B34331A60704700004C
:1015E0000074004010B504469848844208D1012197
:1015F000084600F086FB0021012000F082FB76E027
:101600009348844208D10121022000F07AFB002196
:10161000022000F076FB6AE08E48844208D1012166
:10162000042000F06EFB0021042000F06AFB5EE065
:101630008948844208D10121082000F062FB002182
:10164000082000F05EFB52E08448844208D101216A
:10165000102000F056FB0021102000F052FB46E065
:101660007F48844208D10121202000F04AFB00215C
:10167000202000F046FB3AE07A48844208D101215C
:10168000402000F03EFB0021402000F03AFB2EE01D
:101690007548844208D10121802000F032FB0021EE
:1016A000802000F02EFB22E07048844208D1012106
:1016B000801500F026FB0021A01500F022FB16E0AB
:1016C0006B48844208D10121401500F01AFB00212B
:1016D000601500F016FB0AE06648844207D101213C
:1016E000001500F00EFB0021201500F00AFB10BDD4
:1016F000F0B50A4600210023002400BF3DE001258B
:1017000005FA01F3156805EA03049C4234D1056823
:101710004F000326BE40B543056015794E00B54025
:101720000668354305601579012D02D01579022D23
:1017300016D185684F000326BE40B54385605579B4
:101740004E00B540866835438560456801268E4069
:10175000B5434560456896798E40B6B235434560DD
:10176000C5684F000326BE40B543C560D5794E001D
:10177000B540C6683543C560491C1029BFD3F0BDCC
:101780004FF6FF7101600021017141718171C171DA
:10179000704708B54FF480320092009A0A430092D5
:1017A000009AC261C161009AC261C2690092C269B5
:1017B000009208BD0246002013690B400BB10120C6
:1017C00000E0002070470146086980B27047024679
:1017D000002053690B400BB1012000E0002070474E
:1017E0000146486980B27047018370474183704762
:1017F0000AB1018300E0418370474161704742694B
:101800004A4042617047F0B5002300244D07ED0EB9
:1018100002FA05F3CE1000F1200555F826504E07C8
:10182000F70E0F26BE40B543CF1000F1200646F854
:101830002750CE1000F1200555F8265045EA030444
:10184000CE1000F1200545F82640F0BD0000024012
:101850000004024000080240000C02400010024058
:101860000014024000180240001C02400020024008
:101870000024024000280240F948006840F00100BE
:10188000F74908600020F64908310860F44800680C
:10189000F4490840F2490860F348091D0860F3481C
:1018A000EF4984310860F0481038091D0860EC48A1
:1018B000006820F48020EA4908600020E8490C31E3
:1018C0000860E7498C31086070470021E44A921CA7
:1018D000117011460870704710B5014600220023B0
:1018E00000204A11012A02D1DD4C236808E0022AB7
:1018F00003D1DB4C7034236802E0D94C7434236884
:1019000001F01F02012494401C400CB1012000E0B2
:10191000002010BD38B5002000900024002500BF35
:101920003120FFF7D9FF05460098401C0090009831
:10193000B0F5A04F01D0002DF2D03120FFF7CCFF41
:1019400008B1012400E00024204638BD01460020F3
:10195000C34A106820F0F80040EAC10010607047E8
:10196000C349086070470021BD4A70321170117080
:10197000012802D004280AD104E00121B84A7032BB
:10198000117005E00521B64A7032117000E000BF09
:1019900000BF7047B7490860704770B5049C41EAC2
:1019A00082150126C6EB530645EA0645054345EA7E
:1019B0000465AB4E361D356070BDAD490866704795
:1019C000820142EA0172A64B84331A607047A8492B
:1019D0008866704710B5830143EA016343EA0273E6
:1019E0009F4C8834236010BDA14908677047A04907
:1019F000C864704702460020994B0833186820F0ED
:101A0000EC6042EA01031843954B083318607047B5
:101A100002460020924B0833186820F0784042EAD2
:101A2000010318438E4B08331860704701460020AD
:101A30008B4A0832106820F003000843106070479A
:101A400087480830006800F00C007047014600200D
:101A5000834A0832106820F0F00008431060704795
:101A6000014600207E4A0832106820F4E050084306
:101A70001060704701460020794A0832106820F44F
:101A8000604040EAC10010607047F0B500210022BC
:101A90000024022500260223714F08373F6807F013
:101AA0000C0121B1042905D0082937D105E0724F76
:101AB000076036E0714F076033E0694F3F1D3F68B4
:101AC000C7F38056664F3F1D3F6807F03F036EB176
:101AD0006A4FB7FBF3F7DFF888C10CF1040CDCF8B0
:101AE00000C0CCF3881C07FB0CF40CE0624FB7FB82
:101AF000F3F7DFF86CC10CF1040CDCF800C0CCF398
:101B0000881C07FB0CF4564F3F1D3F68C7F3014785
:101B10007F1C7D00B4FBF5F7076002E0564F0760BD
:101B200000BF00BF4E4F08373F6807F0F0010909BA
:101B3000534F7A5C0768D7404760494F08373F6882
:101B400007F4E051890A4E4F7A5C4768D7408760B6
:101B5000434F08373F6807F46041490B484F7A5CB0
:101B60004768D740C760F0BD002100F44072B2F56D
:101B7000407F0AD13A4A0832116821F4F811414AEB
:101B800002401143364A08321160354A70321268F9
:101B9000C0F30B031A43324B70331A607047354958
:101BA0004439086070473349403908607047364906
:101BB0000860704701460020294A8C32106820F0E6
:101BC0001F004A1E1043264A8C321060704701469F
:101BD0000020234A8C32106820F4F8504A1E40EA54
:101BE00002201F4A8C3210607047014600201C4AB8
:101BF0008C32106820F44010084310607047014692
:101C00000020174A8C32106820F44000084310600E
:101C1000704701460020124A8C32106820F4403090
:101C200008431060704719490860704739B10C4A81
:101C30003032126802430A4B30331A6006E0084A19
:101C4000303212688243064B30331A607047F9B164
:101C5000034A343212680243014B34331A601CE0E9
:101C600000380240FFFFF6EA103000240030002068
:101C700000004742800E47420024F40000127A0020
:101C80002A000020FFFCFF0F5C014742E0114742A1
:101C90008F4A126882438E4B1A60704739B18C4A62
:101CA000121D126802438A4B1B1D1A6006E0884A07
:101CB000121D12688243864B1B1D1A60704739B192
:101CC000834A0C3212680243814B0C331A6006E0DF
:101CD0007F4A0C32126882437D4B0C331A60704786
:101CE00039B17B4A103212680243794B10331A60C3
:101CF00006E0774A103212688243754B10331A603F
:101D0000704739B1724A243A12680243704B243B3F
:101D10001A6006E06E4A243A126882436C4B243BF8
:101D20001A60704739B16A4A203A12680243684B18
:101D3000203B1A6006E0664A203A12688243644BF0
:101D4000203B1A60704739B1614A1C3A126802435D
:101D50005F4B1C3B1A6006E05D4A1C3A12688243E6
:101D60005B4B1C3B1A60704739B1594A143A1268F0
:101D70000243574B143B1A6006E0554A143A126866
:101D80008243534B143B1A60704739B1504A103AA2
:101D9000126802434E4B103B1A6006E04C4A103A60
:101DA000126882434A4B103B1A60704739B1484A67
:101DB0001C3212680243464B1C331A6006E0444A48
:101DC0001C3212688243424B1C331A60704739B18F
:101DD0003F4A2032126802433D4B20331A6006E02E
:101DE0003B4A203212688243394B20331A607047D5
:101DF00039B1374A243212680243354B24331A6012
:101E000006E0334A243212688243314B24331A608D
:101E1000704739B12E4A2C32126802432C4B2C33B6
:101E20001A6006E02A4A2C3212688243284B2C336F
:101E30001A60704739B1264A303212680243244B87
:101E400030331A6006E0224A303212688243204B57
:101E500030331A607047012808D11D493C310968A8
:101E600041F008011A4A3C32116007E018493C3140
:101E7000096821F00801164A3C321160704739B1F7
:101E8000134A273A12780243114B273B1A7006E097
:101E90000F4A273A127882430D4B273B1A7070473E
:101EA0000B484030006840F08070094940310860BC
:101EB000704701460020064A283A12680A400AB1D3
:101EC000012000E000207047014926390870704762
:101ED0003438024010B50446FA48844208D1012142
:101EE0001020FFF752FF00211020FFF74EFF57E0B0
:101EF000F548844209D101214804FFF735FF00214C
:101F00004FF40030FFF730FF4AE0F048844209D137
:101F100001218804FFF728FF00214FF48020FFF7FC
:101F200023FF3DE0EA48844209D10121C804FFF7BC
:101F30001BFF00214FF40020FFF716FF30E0E548BB
:101F4000844209D101210805FFF70EFF00214FF45B
:101F50008010FFF709FF23E0DF48844208D1012108
:101F60002020FFF712FF00212020FFF70EFF17E0CF
:101F7000DA48844209D101218807FFF7F5FE0021E4
:101F80004FF08040FFF7F0FE0AE0D548844207D1C9
:101F900001214005FFF7E8FE00216005FFF7E4FEA0
:101FA00010BD2DE9FF4705460E460024A14600BF9F
:101FB000A046B08900B100BF2C8A24F44054F088B8
:101FC00004432C82AC8941F20C608443B08831898F
:101FD0000843718908430443AC81AC8A24F44074FB
:101FE000B0890443AC826846FFF74FFDB54885428F
:101FF00002D0B948854202D1DDF80C9001E0DDF84D
:102000000890A88900F4004040B109EBC90000EB3A
:10201000091031684900B0FBF1F707E009EBC9008E
:1020200000EB091031688900B0FBF1F76420B7FBC1
:10203000F0F004012009642101FB1078A88900F464
:10204000004040B1322000EBC800B0FBF1F000F0DE
:102050000700044308E0322000EB08106421B0FBC5
:10206000F1F000F00F0004432C81BDE8FF874FF42E
:102070001651016000218180C18001810C214181C4
:1020800000218181704710B502460020108A20F49B
:1020900070600B884C8823438C882343CC8823436F
:1020A0001843108210BD0021018041808180C180D1
:1020B000704721B1828942F40052828104E0828912
:1020C0004DF6FF731A4082817047028B02F47F4203
:1020D0000283028B0A430283704721B1828942F452
:1020E0000042828103E08289C2F30E02828170473E
:1020F00021B1828A42F40062828204E0828A4FF235
:10210000FF731A4082827047C1F3080282807047D1
:1021100001468888C0F308007047028A4FF6F073C2
:102120001A400282028A0A430282704721B18289E0
:1021300042F00202828104E082894FF6FD731A4068
:102140008281704782894FF2FF731A4082818289AF
:102150000A4382817047028A4FF6DF731A40028277
:10216000028A0A430282704721B1028A42F4804205
:10217000028204E0028A4BF6FF731A400282704723
:10218000818941F001018181704721B1828A42F049
:102190000802828204E0828A4FF6F7731A40828234
:1021A0007047028BD2B20283028B42EA0122028381
:1021B000704721B1828A42F02002828204E0828A42
:1021C0004FF6DF731A408282704721B1828A42F053
:1021D0001002828204E0828A4FF6EF731A408282F4
:1021E0007047828A4FF6FB731A408282828A0A43C2
:1021F0008282704721B1828A42F00202828204E028
:10220000828A4FF6FD731A40828270471AB1838A20
:102210000B43838202E0838A8B4383827047F0B54D
:102220000346002400260025002040F66A17B94224
:1022300000D100BF1846C1F3421401F01F06012768
:1022400007FA06F5012C01D10C3004E0022C01D173
:10225000103000E014301AB107682F43076002E025
:102260000768AF430760F0BD02460020B1F5007F6C
:1022700000D100BF13880B400BB1012000E000200B
:10228000704701F40072B2F5007F00D100BFCA436D
:102290000280704770B5024600240023002500200C
:1022A00040F66A16B14200D100BFC1F3421501F0F9
:1022B0001F03012606FA03F3012D13D1968933403B
:1022C00017E00000001001400044004000480040BA
:1022D000004C0040005000400014014000780040D5
:1022E000007C0040022D02D1168A334001E0968A1C
:1022F00033400C12012606FA04F41688344013B158
:102300000CB1012000E0002070BD10B500220023B8
:1023100040F66A14A14200D100BF0A120124944081
:10232000A3B2DC43048010BD10B50446FE488442CD
:1023300008D101210846FFF728FD00210120FFF701
:1023400024FD9DE0B4F1804F08D101210846FFF73C
:102350000BFD00210120FFF707FD91E0F3488442C7
:1023600008D101210220FFF7FFFC00210220FFF726
:10237000FBFC85E0EE48844208D101210420FFF7F0
:10238000F3FC00210420FFF7EFFC79E0E9488442E8
:1023900008D101210820FFF7E7FC00210820FFF702
:1023A000E3FC6DE0E448844208D101211020FFF7EE
:1023B000DBFC00211020FFF7D7FC61E0DF488442FE
:1023C00008D101212020FFF7CFFC00212020FFF7BA
:1023D000CBFC55E0DA48844208D101210220FFF706
:1023E000D4FC00210220FFF7D0FC49E0D54884420C
:1023F00009D101210804FFF7C8FC00214FF4803007
:10240000FFF7C3FC3CE0D048844209D101214804D5
:10241000FFF7BBFC00214FF40030FFF7B6FC2FE0C4
:10242000CA48844209D101218804FFF7AEFC00218B
:102430004FF48020FFF7A9FC22E0C548844208D170
:1024400001214020FFF790FC00214020FFF78CFC89
:1024500016E0C048844208D101218020FFF784FCA7
:1024600000218020FFF780FC0AE0BB48844207D1AE
:1024700001218015FFF778FC0021A015FFF774FCFF
:1024800010BD00220288A84B98420ED0AC4B984257
:102490000BD0B0F1804F08D0A44B984205D0A44B8C
:1024A000984202D0A34B984204D14FF68F731A4042
:1024B0004B881A43A04B984207D0A04B984204D0B7
:1024C0004FF6FF431A400B891A4302804B68C362E0
:1024D0000B880385944B984202D0994B984201D1C6
:1024E0008B7A03860123838270474FF0FF3141606E
:1024F00000210180018141808172704701858282C3
:1025000070470A46002101884FF68F731940114326
:102510000180704741627047C16270470146486A56
:1025200070470146088D704721B1028842F00202CF
:10253000028004E002884FF6FD731A400280704763
:1025400021B1028842F00402028004E002884FF6C2
:10255000FB731A400280704721B1028842F080026A
:10256000028004E002884FF67F731A4002807047B1
:1025700002884FF6F7731A40028002880A430280ED
:10258000704702884FF6FF431A40028002880A43D0
:102590000280704721B1028842F00102028004E00B
:1025A00002884FF6FE731A400280704770B500240F
:1025B00000220023058C4FF6FE7635400584028C00
:1025C0008388048B4FF68F752C40B51E2C400D88E8
:1025D0002C43751E2A408D892A434D882A43524D2B
:1025E000A84202D0564DA84213D14FF6F7752A40A3
:1025F000CD892A434FF6FB752A408D882A434FF632
:10260000FF652B404FF6FF552B400D8A2B434D8A1B
:102610002B43838004838D684563028470BD70B54D
:10262000002400220023058C4FF6EF763540058408
:10263000028C8388048B48F6FF752C404FF6FF45CB
:102640002C400D884FF6FF7606EA05252C434FF601
:10265000DF752A408D8906EA05152A434D8806EA6A
:1026600005152A43304DA84202D0354DA8421DD150
:102670004FF67F752A40CD894FF6FF7606EA05159D
:102680002A434FF6BF752A408D8806EA05152A436E
:102690004FF6FF352B404FF2FF752B400D8A06EAAF
:1026A00085052B434D8A06EA85052B4383800483E9
:1026B0008D688563028470BD70B5002400220023FC
:1026C000058C4FF6FF6635400584028C8388848B29
:1026D0004FF68F752C404FF6FC752C400D882C431F
:1026E0004FF6FF552A408D894FF6FF7606EA0525FD
:1026F0002A434D8806EA05252A430B4DA84202D0FD
:102700000F4DA84238D14FF2FF752A40CD894FF6C0
:10271000FF7606EA05252A434FF6FF352A408D88C5
:1027200006EA05252A4319E00000014000040040A4
:1027300000080040000C0040001000400014004061
:1027400000040140004001400044014000480140B5
:1027500000180040001C0040002000404EF6FF75AD
:102760002B404DF6FF752B400D8A06EA05152B43CD
:102770004D8A06EA05152B43838084838D68C563E3
:10278000028470BD70B5002200230024058C4EF633
:10279000FF7635400584038C8488828B48F6FF756C
:1027A0002A404FF6FF452A400D884FF6FF7606EA8D
:1027B00005252A434DF6FF752B408D8906EA053520
:1027C0002B434D8806EA05352B43FE4DA84202D027
:1027D000FD4DA84208D14BF6FF752C400D8A4FF6EF
:1027E000FF7606EA85152C43848082838D68056414
:1027F000038470BD002101804180818081608181DE
:10280000C18101824182704770B5034600200024D7
:102810001846183001258D40ACB21D8CA5431D848F
:1028200009B108290AD100EB610005684FF68F76DF
:10283000354005600568154305600FE00D1FC5F3C1
:102840004E052844056848F6FF7635400560056862
:102850004FF6FF7606EA02263543056070BD4163F8
:10286000704781637047C1637047016470470A46CF
:102870000021018B4FF68F7319401143018370477C
:102880000A460021018B48F6FF7319404FF6FF738B
:1028900003EA02231943018370470A460021818B12
:1028A0004FF68F7319401143818370470A46002108
:1028B000818B48F6FF7319404FF6FF7303EA02233A
:1028C0001943818370470A460021018B4FF6F77345
:1028D00019401143018370470A460021018B4FF2D2
:1028E000FF7319404FF6FF7303EA02231943018374
:1028F00070470A460021818B4FF6F7731940114348
:10290000818370470A460021818B4FF2FF73194083
:102910004FF6FF7303EA02231943818370470A4687
:102920000021018B4FF6FB7319401143018370475F
:102930000A460021018B4FF6FF3319404FF6FF7313
:1029400003EA02231943018370470A460021818B61
:102950004FF6FB7319401143818370470A460021EB
:10296000818B4FF6FF3319404FF6FF7303EA0223C2
:102970001943818370470A460021018B4FF67F730C
:1029800019401143018370470A460021018BC1F3AE
:102990000E014FF6FF7303EA0223194301837047C8
:1029A0000A460021818B4FF67F73194011438183C2
:1029B00070470A460021818BC1F30E014FF6FF7369
:1029C00003EA02231943818370470A460021018CE0
:1029D0004FF6FD7319401143018470470A460021E8
:1029E000018C4FF6F77319401143018470470A4672
:1029F0000021018C4FF6DF7319404FF6FF7303EA95
:102A000002131943018470470A460021018C4FF6D6
:102A10007F7319404FF6FF7303EA021319430184D1
:102A200070470A460021018C4FF6FF5319404FF6BC
:102A3000FF7303EA02231943018470470A46002109
:102A4000018C4FF2FF7319404FF6FF7303EA022324
:102A50001943018470470A460021018C4DF6FF732B
:102A600019404FF6FF7303EA02331943018470479C
:102A700030B5002301248C40A3B2048C9C43048411
:102A8000048C02FA01F5ADB22C43048430BD30B59C
:102A9000002304248C40A3B2048C9C430484048C43
:102AA00002FA01F5ADB22C43048430BD828B4FF2A3
:102AB000FF331A408283828B4FF6FF7303EA0123B0
:102AC0001A4382837047F0B50C4615460021002258
:102AD0000026078C4EF6FF7C07EA0C070784818BE3
:102AE000028C4FF6FF7707EA043640F6FF4739407D
:102AF0004FF6FF7707EA052739434FF6FF7707EAD6
:102B00000337394345F6FF773A4046F480573A4356
:102B100081830284F0BD828B4FF6F3731A40828367
:102B2000828B0A4382837047F0B50C46154600211C
:102B300000220026078C4FF6FF6C07EA0C0707847B
:102B4000818B028C4FF6FF7707EA04264FF60C774D
:102B500039404FF6FF7707EA03172F4339434FF207
:102B6000FF573A4046F480773A4381830284F0BDB0
:102B7000028B4FF2FF331A400283028B4FF6FF7332
:102B800003EA01231A4302837047F0B50C46154649
:102B9000002100220026078C4FF6EF7C07EA0C0785
:102BA0000784018B028C4FF6FF7707EA041640F684
:102BB000FF4739404FF6FF7707EA033739434FF6AF
:102BC000FF7703E0000001400004014007EA052709
:102BD00039434FF65F773A4046F010073A43018396
:102BE0000284F0BD028B4FF6F3731A400283028B0E
:102BF0000A4302837047F0B50C46154600210022B7
:102C0000068C4FF6FE773E400684018B028C4FF611
:102C10000C7631407E1C06EA03162E4331434FF6F4
:102C2000F576324044F00106324301830284F0BD60
:102C300070B505460C46208850B92389A288618862
:102C40002846FFF7D8FFE1882846FFF7CBFF25E0AD
:102C5000208804280AD12389A28861882846FFF7A2
:102C600094FFE1882846FFF783FF17E020880828B3
:102C70000AD12389A28861882846FFF755FFE18899
:102C80002846FFF748FF09E02389A2886188284683
:102C9000FFF719FFE1882846FFF708FF70BD002104
:102CA00001804180012181800021C1800181704724
:102CB0002DE9F04105460C4600260127608808B939
:102CC000022600E00026A088012801D1022700E0AA
:102CD00001272088A0B92389A28861882846FFF7A8
:102CE0008AFFE1882846FFF77DFF23893A4631466F
:102CF0002846FFF74AFFE1882846FFF739FF13E02F
:102D00002389A28861882846FFF73FFFE18828468B
:102D1000FFF72EFF23893A4631462846FFF76BFF1F
:102D2000E1882846FFF75EFFBDE8F0810146486B69
:102D300070470146886B70470146C86B7047014673
:102D4000086C70470A884B881A438B881A43CB88D3
:102D50001A430B891A434B891A438B891A43A0F8EB
:102D6000442070470021018041808180C180018121
:102D700041818181704731B1B0F8442042F4004272
:102D8000A0F8442005E0B0F84420C2F30E02A0F8F9
:102D90004420704721B1828842F00402828004E01E
:102DA00082884FF6FB731A408280704721B1828877
:102DB00042F00102828004E082884FF6FE731A40DE
:102DC000828070471AB183890B43838102E0838933
:102DD0008B43838170478182704702460020138AAB
:102DE0000B400BB1012000E000207047CA43028273
:102DF000704730B50246002000230024158A05EAFA
:102E00000103958905EA010413B10CB1012000E02A
:102E1000002030BDCA430282704741EA0203A0F895
:102E2000483070471AB183890B43838102E083895C
:102E30008B438381704721B1828842F008028280EF
:102E400004E082884FF6F7731A4082807047018948
:102E50004FF6F8721140018170470A46002101893E
:102E60004FF68F73194011430181704730B5044606
:102E70000D4629462046FFF7F0FF208940F0070065
:102E8000208130BD2DE9F04104460D4616461F460F
:102E9000602D06D13B46012231462046FFF775FEE4
:102EA00005E03B46012231462046FFF7A4FE2946B5
:102EB0002046FFF7D2FF208940F007002081BDE8BF
:102EC000F08130B50C4600210189C9B24FF6FF757B
:102ED00005EA0325154325432943018130BD2DE92A
:102EE000F04105460E4617469846002443463A46AA
:102EF00031462846FFF7E5FF2C894FF6F87004406D
:102F000044F007044FF68F70044044F070042C81A5
:102F1000BDE8F081F0B504460D4616461F463B4617
:102F2000324629462046FFF7CCFF208940F48040F6
:102F30002081F0BD82884FF68F731A40828082888C
:102F40000A438280704702894FF6F8731A40028163
:102F500002890A430281704702894FF67F731A4043
:102F6000028102890A4302817047F0B50C4615467A
:102F70001E460021002200230189028B038C4FF69C
:102F8000F877394021434FF6FC473A4040F20117A9
:102F90003A434FF6DD773B404FF6FF7707EA0617D7
:102FA0002F433B43018102830384F0BD21B182881A
:102FB00042F08002828004E082884FF67F731A40DC
:102FC00082807047A0F85010704770471CB50C46BF
:102FD000064B7B4469460090204600F0F0F804461A
:102FE0000020694600F0FEF820461CBD0F020000DC
:102FF0000FB4044910B503AA029800F0F9F810BC08
:103000005DF814FB2400002010B5431C02E010F80A
:10301000011B71B18107FAD14FF0013202C88C1A3D
:103020008C4314EAC211F9D0C01A0A0603D0C01E9C
:1030300010BDC01A10BD0A0401D0801E10BD0902C7
:10304000FCD0401E10BD704770477047704770B588
:10305000044685690068C10601D5302600E02026B7
:10306000C00707D070BDD4E9012130469047206ADF
:10307000401C20626D1EF6D570BD70B50446856992
:103080000078C00707D170BDD4E901212020904706
:10309000206A401C20626D1EF6D570BD09684A0585
:1030A00001D540B27047C905FCD500B27047096828
:1030B0004A0501D5C0B27047C905FCD580B270473A
:1030C00070B50C460546012A05D02878800600D543
:1030D000EA69002302E0012305E05B1C934202D26F
:1030E000E05C0028F9D1A869E618C01AA861286A2E
:1030F000184428622846FFF7AAFF04E0D5E9012119
:1031000014F8010B9047B442F8D32846FFF7B5FFF7
:1031100070BD00002DE9F0410646002410687529B5
:10312000314616A510D0FFF7B9FF002802DA404259
:1031300013A507E031688A0701D512A502E0490707
:1031400004D511A5012401E0FFF7B1FF00210A22F7
:1031500006F1240709E0B0FBF2FCB0FBF2F302FB3E
:103160001C00303078541846491C0028F3D12346FF
:103170002A463046BDE8F04100F073BA0000000076
:103180002D0000002B0000002000000011680268E4
:10319000006A530501D508700AE0D30501D50880FF
:1031A00006E0130603D5C217C1E9000200E008607B
:1031B0000120704701694A1C02610878704700B518
:1031C0008FB0CDE901310021059105497944CDE960
:1031D00003101146684600F03BF90FB000BD000037
:1031E000E5FFFFFF0A6802F8010B0A607047000064
:1031F000074B70B50D467B44FFF7E1FF04462846B8
:1032000000F0C1FC10B14FF0FF3070BD204670BD22
:1032100013DBFFFF2DE9FF5F15468A460446DFF802
:10322000AC80F8440027D8E900103E46CDE90010F4
:1032300010E03AF816106A4602A800F0A8FC411CFB
:1032400007D02178890603D5E269391891420DD853
:103250000744761C2078800602D5E069B84205DD77
:10326000AE42E6DB3AF816000028E2D1A069C01BA6
:10327000A0612046FFF7EBFED8E90010CDE9001071
:10328000002017E03AF818106A4602A800F07FFC08
:10329000B0F1FF3F81460BD000250DF1080B05E092
:1032A000D4E901211BF8050090476D1C4D45F7D36B
:1032B00008F10100B0428046E4DB206A3844206215
:1032C0002046FFF7DAFEBDE8FF9F0000221A00004B
:1032D0002DE9F0418046D21D22F007020025D2E9F7
:1032E0000002F52915A614D0011E72F1000106DABC
:1032F0000023D0EB030063EB020211A608E0D8F82C
:1033000000108B0701D50FA602E0490701D50EA6D4
:1033100001251146002408F1240704E000F05CF9BF
:1033200030323A55641C50EA0102F7D12B4632463E
:1033300021464046BDE8F04100F093B9000000008E
:103340002D0000002B0000002000000030B4002100
:1033500000F1240408E002F00705D208303542EA03
:103360004372DB086554491C52EA0305F3D1046833
:10337000002310A2250708D504F020040C4304D034
:10338000C46901230CA2641EC46130BC00F069B999
:1033900010B5044621461068FFF789FE0246204614
:1033A000BDE810400023D1E7D21D22F00701D1E98A
:1033B0000023CBE70000000030000000F0B40D4611
:1033C0000188090502D5214C7C4402E01F4C7C4455
:1033D0000E34002100F1240608E002F00F07120964
:1033E000E75D42EA03721B097754491C52EA03075E
:1033F000F3D102780023120704D5702D06D009B14D
:10340000022311342246F0BC00F02BB90123103402
:10341000F8E770B504460D4621461068FFF747FEF1
:10342000024629462046BDE870400023C6E7D21D6B
:1034300022F00703D3E90023C0E70368126843F0D2
:10344000200303600823C3610023B7E7841800004A
:103450002DE9F05F894604464FF0000ADFF874B1A9
:10346000FB44C0F820A02046E1688847002874D0BB
:10347000252806D0D4E901219047206A401C20620B
:10348000F1E700265F462046E16888472028054688
:1034900007DB312D05D2781910F8200C08B106434E
:1034A000F1E7B00701D526F00406C4F81CA00027F8
:1034B000C4F818A02A2D09D0284601F084F838B3A2
:1034C00004EB8708303DC8F8185019E059F8041B80
:1034D000204604EB87029161E1688847012F054689
:1034E00018D1E069002820DA26F020061DE0D8F87F
:1034F000180000EB800005EB40003038C8F81800D9
:103500002046E1688847054601F05DF80028EED1C5
:10351000012F0AD02E2D08D12046E16888477F1C54
:103520000546022F46F02006C4DBA069002803DA16
:10353000404246F00106A061F00701D026F01006D7
:103540006C2D0BD0682D09D04C2D39D06A2D35D07B
:10355000742D35D07A2D33D016E038E0E1682F464F
:1035600020468847B842054609D16C2F26D04FF433
:103570008060E168064320468847054604E06C2FDA
:103580001AD04FF4807006430DB3A5F141001928FD
:1035900002D8203546F400664A4629462046266071
:1035A0004E46FCF72BFE80B101280BD0F61D26F00D
:1035B000070000F1080956E74020E4E78020D8E73B
:1035C0000020D6E706F104094DE7284652E7206AB5
:1035D000BDE8F09F1418000030B5B0F10A024FEAC0
:1035E000900E71F100034EEA817EB0EB0E0061EBAC
:1035F00091014FEA101E4EEA017E10EB0E0041EBE6
:1036000011114FEA102E4EEA016E10EB0E0041EB45
:1036100011214FEA104E4EEA014E10EB0E0041EB25
:103620001141401841F100014FEAD00040EA4170D9
:103630004FEAD10110EB80054FEA810444EA90740F
:1036400044EB01046D1944EB0404521BA3414FF0F9
:10365000000348BF0A3200D530BD401C41F10001D3
:1036600030BD2DE9F0470D4699469246044600F1DB
:1036700024080168880604D5E06921F01001216062
:1036800000E00120A84201DD471B00E00027A169FE
:103690007A1902EB0900081AA0612078C00602D44A
:1036A0002046FFF7D4FC002608E0D4E901211AF8EF
:1036B00006009047206A401C761C20624E45F4DBD1
:1036C0002078C0060AD52046FFF7C1FC06E0D4E901
:1036D000012130209047206A401C2062381EA7F14B
:1036E0000107F4DC07E0D4E9012118F80500904750
:1036F000206A401C2062281EA5F10105F3DC20464B
:10370000FFF7BBFC2078000602D50220BDE8F08759
:103710000120FBE770472DE9FF4F0C461E464FF096
:10372000FF378BB0D2E90001DDF860800A908A464D
:10373000C1F30A5505B93D46002108464FF0000087
:10374000BAF1000F00F4400005DA00EB80004FF4FE
:10375000400101EA50004FEA9059B9F1010F00DD34
:10376000B9460A9850EA4A000ED044F61050A5F225
:10377000FF3545432F14B8F1000F1ED07542291EA6
:103780001EDDC9F100021CE0B8F1010F4FF000008E
:1037900001D0302103E0F24305E02154401CB04247
:1037A000FBDB30460022002121540B99C1F8088030
:1037B000C1E900200FB0BDE8F08FBD1B6D1CDEE736
:1037C0004A4600DA694206A800F072FA06AB93E8AE
:1037D000070003AB83E8070050460A9900F020FB7E
:1037E0008DE80700A0F500501F3800900398002DC9
:1037F00009DD42F21F014A46084403A903906846C6
:1038000000F07FFD08E0A0F500504A461F3803A9EC
:103810000390684600F089FD8DE807000004000C65
:1038200003D04FF0FF30410800E01046B8F1000F20
:1038300003D00022009215461EE0751E05D4FFF746
:10384000CBFE303262556D1EF9D5B34601220843D6
:1038500002D000227F1C04E02078302801D1002211
:103860007F1E002A099786D01DE0112D07DAFFF789
:10387000B3FE303262556D1C50EA0102F5D10843A7
:1038800002D00098C8B10EE00021681E05E0235C5C
:10389000625C63542254401E491C8142F7DBAB46F4
:1038A000A81B401E0990002004F80B000B98099AF1
:1038B000C0F80880C0E9002B7CE711264FF0000813
:1038C00059E72DE9F04F88460446D21D22F0070142
:1038D00091B0D1E90001CDE90A0100F05CFE024699
:1038E0000B98C00F01D02D2007E02068810701D57B
:1038F0002B2002E0202101EAC000032A099001D018
:10390000072A05DB03464146204600F091F90BE10A
:103910002078800601D5E06900E00620B8F1650F47
:10392000814606D0B8F1660F18D0B8F1670F70D194
:1039300031E00020B9F1110F009001DB112301E00B
:1039400009F101030AAA01A90CA8FFF7E4FEDDE9C9
:103950000C70002609F10105834647E001204B4623
:1039600000904FF000470AAA01A90CA8FFF7D3FE68
:10397000DDE90DB00C995D46002610B909F1010092
:103980000D18B9EB050003D4C0F1FF3609F10105AC
:10399000A5EB09002BE0B9F1010F01DA4FF00109A5
:1039A0000020B9F1110F0090484601DD112300E01D
:1039B00003460AAA01A90CA8FFF7ADFEDDE90C70C9
:1039C0004D4600268346207800070AD4AB4500DA2E
:1039D0005D4601A8012D04DD411911F8011C3029B3
:1039E00007D04F4502DA17F1040F04DA01208246AE
:1039F0000FE06D1EEEE7002F02DCED1B3E4403E0FE
:103A0000781CA84200DD7D1CB81B00F1010A4FF0B4
:103A100000472078000703D4AA4501DB4FF0FF3AA6
:103A20000021B7F1004F0DF143088DF8431024D069
:103A300002202B23002F01DA7F422D230A21021EB0
:103A4000A0F1010000DC5FB197FBF1FC97FBF1F204
:103A500001FB1C7C17460CF1300C08F801CDEEE799
:103A6000A8F1010003702188090501D5452100E076
:103A70006521A0F1010800F8011C09980FA9A1EB2C
:103A80000807FF1D00B10120411901EBEA70A1698F
:103A90003844081A401EA0612078C00602D420468F
:103AA000FFF7D5FA099828B1D4E901219047206A97
:103AB000401C20622078C00622D52046FFF7C7FAB6
:103AC0001EE0002E04DBB34502DD01A8805D00E0AE
:103AD0003020D4E901219047206A401C2062761CE6
:103AE000AAF101005FEA000A0AD100F09DF8C0685F
:103AF0000168405CD4E901219047206A401C2062A3
:103B0000281EA5F10105DCDC07E0D4E9012118F845
:103B1000010B9047206A401C2062381EA7F1010764
:103B2000F3DC2046FFF7A9FA032011B043E610B5F5
:103B3000436913B1AFF3008001E0FFF7C1FA012040
:103B400010BD127800F124010A7000224A7001228F
:103B5000EDE711684FF0FF32E9E710B5436913B1A3
:103B6000AFF3008001E0FFF755FB012010BD128884
:103B700000F1240182840022C2840122EDE7116851
:103B80004FF0FF32E9E7007B00F08000704770B52E
:103B900016460C46054600F03FF8036893F801010D
:103BA000012806D0FF2C0FD8185D68B101202C70B9
:103BB00070BDD3F807013246214603F207130344D0
:103BC0002846BDE8704018474FF0FF3070BD75467D
:103BD00000F0E2F8AE4605006946534620F00700C3
:103BE000854618B020B5FDF741F9BDE820404FF0FB
:103BF00000064FF000074FF000084FF0000B21F0D7
:103C00000701AC46ACE8C009ACE8C009ACE8C009A3
:103C1000ACE8C0098D46704710B500F005F8001DEE
:103C200010BD00BFDD0900000048704748040020B7
:103C30002DE9F0411F46044603260168072A01F4D6
:103C4000006004DB08B116A505E016A503E008B185
:103C500015A500E015A521F010002060A069C01E88
:103C6000A0610FB1401EA0612046FFF7F0F94FB1EF
:103C7000D4E9012138469047206A401C2062C01CCC
:103C8000206206E0206AFAE7D4E9012115F8010B69
:103C90009047761EF8D22046FFF7EFF9BDE8F08195
:103CA0004E414E006E616E00494E4600696E6600E0
:103CB0002DE9F047814616468AB0334878440DC84E
:103CC0008DE80D0030487844801C03AC0DC884E8B2
:103CD0000D0041F69B300844372190FBF1F290FB38
:103CE000F1F5A5F1800501FB12041B3C02D56442ED
:103CF000012000E00020DFF890A080460027FA4471
:103D0000AAF1BE0A0DE0E00709D03246684607EB8B
:103D100047010AEB810100F008FB8DE80700641001
:103D20007F1C002CEFD1184F7F44AC3F18E0E80710
:103D300014D007EB04100DF1180A90E80E008AE881
:103D40000E00C068F04201D198190890324606A9C9
:103D500003A800F0EAFA03AB83E807006D10641CC7
:103D6000002DE4D132466946B8F1000F03A802D015
:103D700000F0C7FA01E000F0D8FAC9E90001C9F87B
:103D800008200AB0BDE8F087481000000446AFF3F1
:103D900000802046FCF797FA00487047280400206E
:103DA0004FF0013C50F8042B51F8043B9A4221D1CA
:103DB000A2EB0C03934313EACC1317D150F8042B56
:103DC00051F8043B9A4215D1A2EB0C03934313EA3A
:103DD000CC130BD150F8042B51F8043B9A4209D173
:103DE000A2EB0C03934313EACC13DBD04FF000009B
:103DF000704700BFD01A01BAB1FA81F101F0180181
:103E000022FA01F0CB40C1F12001DBB2C0B2C01AEE
:103E10002CFA01F3D11A914311EAC311E6D170478C
:103E20005FEA400C08BF91F0000F4FEA8C234FEA85
:103E3000C12243EA51514FEA1C5018BF00F5F0402F
:103E40004FEA300018BF41F000415FEA6C5C00F0BF
:103E50002980BCF1FF3F08BF40F080407047130C41
:103E600006BF12044FF0100C4FF0000C130E04BFED
:103E700012020CF1080C130F04BF12010CF1040C18
:103E8000930F04BF92000CF1020CD30F04BF520039
:103E90000CF1010C11464FF00002A0F11F00A0EB45
:103EA0000C00704711F0004F08BF704731F000411F
:103EB0003FF4D5AF0B0C06BF09044FF0100C4FF0C8
:103EC000000C0B0E04BF09020CF1080C0B0F04BF11
:103ED00009010CF1040C8B0F04BF89000CF1020CDA
:103EE000CB0F04BF49000CF1010CCCF12003A0EB77
:103EF0000C0022FA03F302FA0CF241EA030100F18A
:103F00000100704720F07F4C80EA030023F07F47D8
:103F1000ACEB070303F57C5300F0004003F1FF0313
:103F20002DE980494FEA154B09B44FEA144325EABD
:103F30000B4E24EA03480FF2042606EB1327490828
:103F40003E785FEA320203FB0667C7F5000707FB0E
:103F500006F64FEA54374FEAD64606F1020607FB4B
:103F6000066CCCF1005C4FEA1C472CEA074C07FBBF
:103F700006F40CFB06F504EB15464FEA961634BF23
:103F800000204FF000404FEAD13706FB07FC4FEA14
:103F90001C4C0CFB0BF7D21B03FB0CF761EB07016E
:103FA0000CFB0EF7B0EB074072EB17420CFB08F767
:103FB00034BFA2EB0742B2EB074261EB17414FEA75
:103FC0000C444FEA910706FB07FC4FEA1C4C0CFB24
:103FD0000BF7B0EBC74072EB573203FB0CF734BF63
:103FE000A2EBC742B2EBC74261EB57310CFB0EF7B5
:103FF000B0EBC70072EB57720CFB08F734BFA2EBB3
:10400000C702B2EBC70261EB5771039F4FEA8161B0
:1040100041EA921104EBCC044FEAD1374FEA8262B5
:1040200006FB07FC42EA90124FEA80604FEA1C4C04
:104030000CFB0BF7D21B03FB0CF761EB07010CFB2E
:104040000EF7B0EB074072EB17420CFB08F734BFDA
:10405000A2EB0742B2EB074261EB17414FEA8C55E6
:104060004FEA910704EB9C2406FB07FC4FEA1C4C2B
:104070000CFB0BF7B0EBC74072EB573203FB0CF7AE
:1040800034BFA2EBC742B2EBC74261EB57310CFB26
:104090000EF7B0EBC70072EB57720CFB08F734BF9A
:1040A000A2EBC702B2EBC70261EB577115EB4C25CF
:1040B0004FEA816141EA92114FEA82624FEAD137B9
:1040C00042EA901206FB07FC44F100044FEA8060CC
:1040D0004FEA1C4C0CFB0BF7D21B03FB0CF761EBFC
:1040E00007010CFB0EF7B0EB074072EB17420CFB1D
:1040F00008F734BFA2EB0742B2EB074261EB17416E
:1041000015EB1C154FEA813141EA92414FEA8232A8
:1041100042EA90424FEA80304FEA0C7644F10004C4
:1041200048EA03434EEA0B484FF0000EB2EB080C8E
:1041300071EB030724BF624639464EEB0E0E4FF07B
:10414000000B0018524149414BEB0B0BB2EB080C32
:1041500071EB03077BF1000B24BF624639464EEB3F
:104160000E0E4FF0000B0018524149414BEB0B0B68
:10417000B2EB080C71EB03077BF1000B24BF624626
:1041800039464EEB0E0E51EA020718BF46F0010603
:1041900016EB0E7655F1000254F1000103D5BDE88F
:1041A0008901BDE80088BDE88901BDE80048B6196D
:1041B000524141EB0101A3F10103704780807F7EF2
:1041C0007D7C7B7A7978777676757473727171708D
:1041D0006F6E6E6D6C6C6B6A6A696868676666653F
:1041E0006464636362616160605F5F5E5E5D5D5CCD
:1041F0005C5B5B5A5A59595858575756565555553E
:104200005454535352525251515050504F4F4F4E9D
:104210004E4D4D4D4C4C4C4B4B4B4A4A4A494949EB
:10422000484848474747474646464545454444442D
:10423000444343434342424242414141002B26D43E
:10424000770021D01CB54FEA370703B44FF01000B8
:104250004FF010014FF000000FBCBDE810400BF113
:10426000010BBBF1010F08BF5FEA170722BF12F174
:10427000010211F101014FF0004143F1000300F090
:10428000004043EA00007047F9D35708DAE746EAEE
:10429000064613F1400F4FEA16461FDD13F1200FBB
:1042A000DFBF16430A46002120335B42C8D0C3F16A
:1042B000200746EA064602FA07F74FEA164646EA9C
:1042C0000706C3F1200722FA03F201FA07F721FAE1
:1042D00003F14FF0000342EA0702B1E746EA0206A3
:1042E00046EA06464FEA164646EA0106BCBF46EADB
:1042F0000646360C4FF000034FF000024FF000016D
:104300009EE72DE9C048934630B491E8380007C8CD
:1043100031EA400C48BF34EA430C03D5FFF7F2FD05
:10432000FFF78CFFF0BCBDE800882DE9C04893463C
:1043300030B491E8380007C810F0804F08BF13F080
:10434000804F03D100F005F8FFF778FFF0BCBDE81F
:10435000008820F07F4780EA030023F07F4C07EBC2
:104360000C03A3F57C5300F00040A3F1FE0392F090
:10437000000F00F0B38095F0000F00F077802DE97A
:1043800001494FEA11404FEA144621EA004800FB78
:1043900006FC24EA064708FB06F607FB08F800FBC4
:1043A00007F718EB06484CEB164C4FEA124B18EB8C
:1043B00007484FEA15464CEB174022EA0B4E0BFB21
:1043C00006FC25EA06470EFB06F607FB0EFE0BFB76
:1043D00007F71EEB064E4CEB164C4FF000061EEB9B
:1043E000074E4CEB174B18EB0B0840F1000018EB95
:1043F0000E0B58EB000840F100008F1A4FF000013F
:104400003CBFC943661B14BFB5EB040C00213CBF85
:10441000C943F61B4FEA17444EEA8E0E27EA0445BD
:104420004FEA1C4704FB07622CEA074C05FB07F721
:104430000CFB05F604FB0CFC16EB074642EB17429F
:1044400016EB0C4642EB1C421BEB060658EB020235
:10445000414146EA9E0601D5BDE80189B61952419F
:1044600041EB0101A3F10103BDE801894FEA1445C5
:104470004FEA114724EA054621EA074C05FB07F4F9
:1044800006FB07F70CFB06F105FB0CFC11EB0741E3
:1044900044EB17444FEA124711EB0C4144EB1C4428
:1044A00022EA074C05FB07F206FB07F70CFB06F6B2
:1044B00005FB0CFC16EB074642EB174216EB0C46CD
:1044C00042EB1C456A1854F1000148BF7047B61909
:1044D000524141EB0101A3F10103704795F0000F38
:1044E00037D04FEA11424FEA144721EA024624EA44
:1044F000074C02FB07F106FB07F70CFB06F402FB77
:104500000CFC14EB074441EB17414FEA154714EB41
:104510000C4441EB1C4125EA074C02FB07F506FB66
:1045200007F70CFB06F602FB0CFC16EB074645EB07
:10453000174516EB0C4645EB1C42121951F10001D0
:1045400048BF7047B619524141EB0101A3F1010385
:1045500070474FEA14454FEA114724EA054621EA1D
:10456000074C05FB07F106FB07F70CFB06F24FF0C3
:10457000000605FB0CFC12EB074241EB174112EB66
:104580000C4251EB1C4148BF7047921841EB0101AE
:10459000A3F10103704703B401984100009850EA69
:1045A000C12018BF04204A0D18BF40F0010040F29E
:1045B000FF72B2EB515F08BF40F00200012808BF54
:1045C000052002B0704730380A2801D20120704718
:1045D0000020704710B500290AD00878002807D0BD
:1045E00005487844FFF7DCFB002801D0002010BD0F
:1045F0000248784410BD00005E0700005607000026
:1046000010B500290AD00878002807D0054878445A
:10461000FFF7C6FB002801D0002010BD02487844F7
:1046200010BD00004E070000460700002DE9C04104
:1046300030B4DFF8A0C23CEA111418BF3CEA1314EE
:1046400000F0EC8081EA03051CEA111444EAD574F9
:1046500018BF1CEA131500F0C780A4EB05044FF047
:10466000004545EAC12145EAC32341EA505143EAE6
:10467000525304F17F74994204F500344FEAC0208C
:104680004FEAC22208BF904200F09C804FEA1365B7
:104690000FF24016765D4FEA134506FB05F7C7F1AA
:1046A000807706FB07F74FEAD737A7FB0368764208
:1046B000C8F58038A7FB06CE38BFA8F1010807FB74
:1046C00008E64FF0000EA6FB028CE6FB03CEDCF101
:1046D000000CCEF1004E38BFAEF1010EA6FB0C5817
:1046E0004FF000074FF00005E6FB0E87A1FB08C660
:1046F000A0FB07CE16EB0E0645F10005E1FB0765B2
:1047000015F1E04E7EBFA4F580345FEA46066D41A8
:1047100016F1800745F100054FEA17274FEA0666B4
:1047200047EA0567A6F1DE46B6F1805F4FEA152538
:104730001FD9384624F0010C05EBC471BCF1FE6FA3
:1047400001EB0C1102D8F0BCBDE8008124425CBF33
:1047500001F5801E9EEAC47F02D4F0BCBDE8008152
:10476000244238D4F0BCA1F1C041BDE8004100F0C2
:10477000EDB94FEAD22242EA43524FEAD323A7FBD4
:1047800002864FEAD02040EA415007FB03661EEA4A
:104790000E0F4FEAD12105FB026658BFA6EB00566B
:1047A000B6EB00564FEA520E4EEAC37E18EB0E0EE1
:1047B00056EB530EBDD518EB02085E417F1C55F138
:1047C0000005B6E74FF480154FF000074FF00006E4
:1047D0004FF00008ADE7F0BC4FF0000001F1C04120
:1047E00001F00041BDE8008111EA0C1F0CEA13152D
:1047F00000D00CE013EA0C1F00F025804FF0000001
:10480000F0BC81EA030101F00041BDE80081F0BC89
:10481000BDE8004181EA030100F098B9F0BCBDE8B1
:10482000004170B500F044F9097EFC3E00F007B885
:1048300081EA03014FF0000001F00041704781EA76
:10484000030100F083B9F0BCBDE800414FF0000067
:1048500021497047FFFDFBF9F7F5F4F2F0EEEDEBBF
:10486000E9E8E6E4E3E1E0DEDDDBDAD8D7D5D4D36E
:10487000D1D0CFCDCCCBCAC8C7C6C5C4C2C1C0BFBA
:10488000BEBDBCBBBAB9B8B7B6B5B4B3B2B1B0AFC0
:10489000AEADACABAAA9A8A8A7A6A5A4A3A3A2A1A4
:1048A000A09F9F9E9D9C9C9B9A999998979796955F
:1048B00095949393929191908F8F8E8E8D8C8C8BFB
:1048C0008B8A898988888787868585848483838283
:1048D000828181800000FF070000F87F4FEA1153BA
:1048E000A3F58063D3F11E03A8BFD3F1200C08DB2E
:1048F0004FF0004242EAC12252EA505232FA03F02B
:10490000704709420BD4102BC4BF0020704703F539
:10491000787CBCF1FF3F05D04FF0FF3070474FF07F
:104920000000704770B500F0C3F800BF49922480C2
:1049300000207047F0E7B0FA80F310FA03F10AD0D4
:10494000C3F11D0303F580634FEA41504FEA035260
:1049500002EBD12170474FF000007047DFF848C1EB
:1049600070B51CEA111E1EBF1CEA13159EEA0C0F3F
:1049700095EA0C0F00F06F8081EA030423EA4C13E0
:104980004EEAD47E21EA4C1141F4801143F48013A5
:10499000AE44A1FB024CA0FB0365AEF17F7E36194D
:1049A00055EB0C05A1FB034C4CF10003A0FB021CD2
:1049B00016EB0C06654153F10003094218BF46F09F
:1049C000010613F4007F0BD14FEA03314FEA0530A3
:1049D000340341EA155140EA16506FF003020AE031
:1049E0004FEAC3214FEAC520F40241EA555140EA9B
:1049F00056506FF0020202EB2E4201EB025585EA9F
:104A0000CE710AD05FEA440C18BF24F0004450F184
:104A1000000041F1000120EAD47040F2FE7C6245C2
:104A200000D270BDA84214BF4FF080444FF0404404
:104A3000002E08BF0024BEF1806FA8BFA1F1C041C5
:104A4000BDE8704080F282804FF0000001F1C0416B
:104A500001F0004170479EEA0C0F0CEA131518BFD5
:104A600095EA0C0F06D04FF0000081EA030E0EF01D
:104A7000004170BD00F01CF88900013E00F007B84D
:104A800000F009B84FEA430C5FEA5C5C08D081EAA9
:104A9000030100F05BB84FEA410C5FEA5C5CF6D1C1
:104AA0004FF00000014970470000FF070000F87F49
:104AB0000EF1020E2EF0030E5EF8046B364205D4A2
:104AC000012A43EB030515F5001F12D8012841EB1D
:104AD000010C1CF5001F0CD80ED14FEAD17C15F546
:104AE000001F0CEB4C0C0CF1020C08BF4CEBD37C00
:104AF00004E04FF0080C01E04FEAD37C0CEB4C05CE
:104B000026FA05F606F00706B6F1040C06D20EEBFF
:104B1000860CBDE870404CF0010C6047DFE80CF0FB
:104B2000090B02024FF000414FF00000A1F50021F7
:104B300070BD19461046012851EB010418BFD4F589
:104B4000001484BF002001F0004170BD0808A0F5EA
:104B500000114FEA3101704743004FEAD30C4FEA8E
:104B60003C0C43401FBF40070CF1605113F0FE4F57
:104B700070471CF0006F03D100200CF0004170471B
:104B80000CF0004343EA507010B540EACC0000F04E
:104B90000EF800BF000000924FEA0001FFF7D6BFF9
:104BA0004FF000414FF00000A1F5002170470EF1D9
:104BB000020E2EF0030E5EF8044B244204D44FEA9A
:104BC0004102B2F17F4F11D84FEA4003B3F17F4F5A
:104BD0000CD80ED14FEAD07CB2F17F4F0CEB4C0CCD
:104BE0000CF1020C08BF4CEBD17C04E04FF0080C38
:104BF00001E04FEAD17C0CEB4C0324FA03F404F0FF
:104C00000704B4F1040C06D20EEB840CBDE810408E
:104C10004CF0010C6047DFE80CF0070802024FF08F
:104C20000040A0F5800010BD0846420018BFD2F138
:104C3000807288BF00F0004010BD4FF04070E1EE80
:104C4000100A7047FEF73DBE0000000000000000A3
:104C500030313233343536373839414243444546B2
:104C600040305800303132333435363738396162AC
:104C700063646566403078000400000800000000AE
:104C800000000002000100001000000002400000CF
:104C9000000000A00000000005400000000000C867
:104CA000000000000C4000000000409C00000000DC
:104CB000194000000020BCBE00000000344000008D
:104CC000BFC91B8E00000004B5400000504BCFD080
:104CD0006607E2CF010000006C4100003E8251AA4D
:104CE000DFEEA73401000000D9420000DCB5A0E2ED
:104CF0003A301F97FFFFFFFFB4450000FD25A0C815
:104D0000E9A3C14FFFFFFFFFFF3F0000000000804D
:104D100000000000FF3F00000000008000000000D5
:104D20006C4E0008000000203C000000C401000898
:104D3000A84E00083C0000204C0A0000E0010008DA
:104D40001C00000043000000F8FFFFFF0C00000003
:104D50000E0000000F0000002E00000010010000F7
:104D600043000000F8FFFFFF00404040404040404B
:104D7000404041414141414040404040404040402E
:104D800040404040404040404005020202020202D2
:104D90000202020202020202022020202020202021
:104DA0002020200202020202020290909090909035
:104DB00010101010101010101010101010101010F3
:104DC0001010101002020202020288888888888867
:104DD0000808080808080808080808080808080853
:104DE000080808080202020240000000000000005B
:104DF00000000000000000000000000000000000B3
:104E000000000000000000000000000000000000A2
:104E10000000000000000000000000000000000092
:104E20000000000000000000000000000000000082
:104E30000000000000000000000000000000000072
:104E40000000000000000000000000000000000062
:104E50000000000000000000000000000000000052
:104E6000000000000000000000000000007A030ABB
:104E7000000000000000000001020304060708090A
:104E80000100000000000000000000000000000021
:104E90000000000000000000000001020304010205
:084EA0000304060708090000E5
:040000050800018965
:00000001FF
