:020000040800F2
:10000000E80A0020A9190008310700083307000892
:10001000370700083B0700083F0700080000000002
:10002000000000000000000000000000430700087E
:1000300045070008000000004707000849070008BE
:10004000C3190008C3190008C3190008C319000820
:10005000C3190008C3190008C3190008C319000810
:10006000C3190008C3190008C3190008C319000800
:10007000C3190008C3190008C3190008C3190008F0
:10008000C3190008C3190008C3190008C3190008E0
:10009000C3190008C3190008C3190008C3190008D0
:1000A000C3190008C3190008C3190008C3190008C0
:1000B0008F0D0008F1090008BF0C0008C3190008E3
:1000C000C3190008C3190008C3190008C3190008A0
:1000D000C31900081F190008C3190008ED0D000816
:1000E000C3190008C3190008C3190008C319000880
:1000F000C3190008C3190008C3190008C319000870
:10010000C3190008C3190008C3190008C31900085F
:10011000C3190008C3190008C3190008C31900084F
:10012000C3190008C3190008C3190008C31900083F
:10013000C3190008C3190008C3190008C31900082F
:10014000C3190008C3190008C3190008C31900081F
:10015000C3190008C3190008C3190008C31900080F
:10016000C3190008C3190008C3190008C3190008FF
:10017000C3190008C3190008C3190008C3190008EF
:10018000C3190008C319000800F002F800F04CF889
:100190000AA090E8000C82448344AAF10107DA45E2
:1001A00001D100F041F8AFF2090EBAE80F0013F0E8
:1001B000010F18BFFB1A43F00103184784530000D6
:1001C000A4530000103A24BF78C878C1FAD8520767
:1001D00024BF30C830C144BF04680C6070470000C1
:1001E0000023002400250026103A28BF78C1FBD840
:1001F000520728BF30C148BF0B607047662905F021
:100200004A81642903F09081002070471FB505F0F2
:1002100038F903F0B5FD04000020002104F046FB8E
:10022000E0601FBD10B510BD03F0AEFE1146FFF734
:10023000EDFF00F079F903F0CCFE03B4FFF7F2FF15
:1002400003BC01F00DFB000038B504460D4600204C
:1002500000900095A521FE4802F0C8F900BF40219A
:10026000FB4802F073FA0128F9D15A21F84802F04C
:10027000BDF900BF4021F64802F068FA0128F9D123
:100280000521F34802F0B2F900BF4021F04802F026
:100290005DFA0128F9D18221ED4802F0A7F900BFEB
:1002A0004021EB4802F052FA0128F9D12112E84826
:1002B00002F09CF900BF4021E54802F047FA01280E
:1002C000F9D1E1B2E24802F091F900BF4021E048E3
:1002D00002F03CFA0128F9D19DF80110DC4802F047
:1002E00085F900BF4021DA4802F030FA0128F9D13F
:1002F0009DF80010D64802F079F900BF4021D4489B
:1003000002F024FA0128F9D138BD10B50446A52120
:10031000CF4802F06BF900BF4021CD4802F016FA39
:100320000128F9D15A21CA4802F060F900BF4021E2
:10033000C74802F00BFA0128F9D10421C44802F0A1
:1003400055F900BF4021C24802F000FA0128F9D156
:100350008021BF4802F04AF900BF4021BC4802F0AA
:10036000F5F90128F9D10321B94802F03FF900BF9E
:100370004021B74802F0EAF90128F9D10021B44838
:1003800002F034F900BF4021B14802F0DFF9012842
:10039000F9D12146AE4802F029F900BF4021AC480E
:1003A00002F0D4F90128F9D110BD70B52DED048B00
:1003B00084B00446002600EE104AB8EEC00A10EEE3
:1003C000100A04F0EDFF41EC190B9FEDA20B53EC6A
:1003D000102B04F067FB41EC180B04F07DFA054686
:1003E00014229E4901F1140003F076F914229B496E
:1003F00014399A4803F070F914229849283901F108
:10040000140003F069F9284604F0CAFF41EC180B08
:100410008DED028B924800680090924803689248E4
:1004200092A102688D48283803F042F8FF208B49DA
:1004300028390874487404B0BDEC048B70BD70B5E5
:1004400030246EE0A521824802F0D0F800BF4021A0
:100450007F4802F07BF90128F9D15A217C4802F04B
:10046000C5F800BF40217A4802F070F90128F9D19F
:100470001521774802F0BAF800BF4021744802F015
:1004800065F90128F9D18221714802F0AFF800BF67
:1004900040216F4802F05AF90128F9D100216C4837
:1004A00002F0A4F800BF4021694802F04FF901288A
:1004B000F9D12146664802F099F800BF402164480E
:1004C00002F044F90128F9D1002525E0302C06D0AE
:1004D000402C06D0502C06D0602C08D105E0002618
:1004E00006E0012604E0022602E0032600E000BF49
:1004F00000BF06EB8600594A283A02EB8000415DB6
:10050000534802F073F800BF4021514802F01EF931
:100510000128F9D1681CC5B2122DD7DB04F11000F7
:10052000C4B2702C8EDB70BD2DED028B86B0002026
:10053000059000BF00244FF47A759FED520AB0EE8B
:10054000408A4FF4A06001F04FFAA82001F006F9AC
:100550004FF4E13001F091F94FF4E13000F075FC17
:1005600042F2CF0142F20F7000F016FA42F2CF01D0
:10057000681E00F0AFFA00F0F1F900F0D1FC00F0D5
:100580008FFD00204049088001A801F0F0FCC7E081
:1005900000F08CFDB0EE408AB0EE480A00F045FF56
:1005A000B0EE408AB2EE040A28EE000ABDEEC00AA0
:1005B00010EE100A04B240F67820844277DAAC429A
:1005C00075DD32480078002871D1142001F028F937
:1005D00000F06CFDB0EE408AB0EE480A00F025FF56
:1005E000B0EE408AB2EE040A28EE000ABDEEC00A60
:1005F00010EE100A04B240F67820844257DAAC427A
:1006000055DD0021224802F0F7F900202149086059
:1006100001211F4802F030FA0320FFF776FE012087
:100620001D49086019490870322001F0F9F800F0FE
:100630003DFDB0EE408AB0EE480A00F0F6FEB0EEA6
:10064000408AB2EE040A28EE000ABDEEC00A26E097
:100650000048004000000000000024407800002016
:100660001C000020200000202400002025303264DF
:100670003A253032643A2530326420202025332E4A
:100680003166000000000000300000200000002063
:1006900000040040180000208882414207E010EE6C
:1006A000100A04B22046FFF780FEFFF7C8FEAC42F6
:1006B00003DB40F67820844206DB1A4800780128E4
:1006C00002D100201749087021461020FFF7BCFD19
:1006D00029464FF4CD70FFF7B7FD1348008800F4AA
:1006E0000040E8B110480088C0F30D060F48C078FC
:1006F00083280ED10D48007901280AD10B48407992
:100700009A2806D10948007A0849C97900EB0120E6
:1007100005B2F11C054803F024F8002002490880C6
:1007200036E70000000000203000002030020020EA
:10073000704700BFFEE700BFFEE700BFFEE700BF57
:10074000FEE7704770477047704700000CB5002007
:10075000019000907648006840F480307449086049
:1007600000BF7348006800F4003000900198401CFE
:100770000190009818B90198B0F5A04FF1D16C48DC
:10078000006800F4003010B10120009001E000206A
:1007900000900098012846D165484030006840F03C
:1007A00080506349403108606248006840F440402E
:1007B000604908605E48083000685D49083108609B
:1007C0000846006840F4004008600846006840F4AD
:1007D000A05008605848091F0860081F006840F0D2
:1007E0008070091F086000BF5148006800F0007069
:1007F0000028F9D040F20570504908604C48083094
:10080000006820F003004A49083108600846006883
:1008100040F00200086000BF45480830006800F062
:100820000C000828F8D10CBD10B54548006840F40C
:100830007000434908603E48006840F001003C49B0
:10084000086000203A4908310860394800683D498D
:100850000840374908603C48091D0860081F0068C7
:1008600020F48020091F0860002031490C31086005
:10087000FFF76CFF4FF0006031498039086010BD10
:1008800070B500200022022300240221284D0835E3
:100890002D6805F00C0020B1042806D0082834D1BA
:1008A00007E02A4D2A4E356033E02A4D284E356048
:1008B0002FE01F4D2D1D2D68C5F380541C4D2D1D9F
:1008C0002D6805F03F0154B1224DB5FBF1F5184EEE
:1008D000361D3668C6F3881605FB06F209E01B4D87
:1008E000B5FBF1F5124E361D3668C6F3881605FBCA
:1008F00006F20F4D2D1D2D68C5F301456D1C6B00D3
:10090000B2FBF3F5124E356003E0104D104E35602A
:1009100000BF00BF064D08352D68C5F303150E4E08
:10092000705D0B4D2D68C540094E356070BD0000EF
:10093000003802400070004008544007003C02406C
:1009400088ED00E0FFFFF6FE103000240024F400E4
:100950000400002000127A00080000201CB50121CC
:10096000082001F0D5FB0C20009001208DF8040038
:1009700000208DF8060003208DF8050001208DF879
:1009800007006946034801F025F90C21014801F0F0
:100990009FF91CBD000C02407FB505460C460121A5
:1009A000022001F0FEFB0295ADF804400020ADF8F6
:1009B0000600ADF80C0001A9FE4801F0D4FF0122A9
:1009C0001146FC4802F070FC0121FA4802F054F88C
:1009D0001D208DF8000001208DF8010003208DF806
:1009E000020001208DF80300684601F002F87FBD87
:1009F00010B50121EF4802F06EFC012865D1EE48E8
:100A00000068401CEC49086008460068042859DD6D
:100A10000020EA490860E8490860A521E84801F09B
:100A2000E5FD00BF4021E64801F090FE0128F9D124
:100A30005A21E34801F0DAFD00BF4021E04801F00F
:100A400085FE0128F9D10421DD4801F0CFFD00BF6A
:100A50004021DB4801F07AFE0128F9D18021D848F5
:100A600001F0C4FD00BF4021D54801F06FFE012810
:100A7000F9D10321D24801F0B9FD00BF4021D0488F
:100A800001F064FE0128F9D10021CD4801F0AEFD4E
:100A900000BF4021CA4801F059FE0128F9D10121C7
:100AA000C74801F0A3FD00BF4021C54801F04EFE3C
:100AB0000128F9D10020C34908600021BD4801F098
:100AC000DBFF02E00120BD4908600121B94802F0C6
:100AD00013FC10BD7FB505460C460121042001F032
:100AE00060FB0295ADF804400020ADF80600ADF8BB
:100AF0000C0001A9B44801F036FF01221146B248AA
:100B000002F0D2FB0121B04801F0B6FF1E208DF8A3
:100B1000000001208DF8010003208DF80200012063
:100B20008DF80300684600F064FF7FBD08B5002023
:100B30000090A521A24801F059FD00BF4021A04826
:100B400001F004FE0128F9D15A219D4801F04EFD23
:100B500000BF40219A4801F0F9FD0128F9D10A218E
:100B6000974801F043FD00BF4021954801F0EEFD9C
:100B70000128F9D18221924801F038FD00BF4021BF
:100B80008F4801F0E3FD0128F9D100218C4801F0E4
:100B90002DFD00BF40218A4801F0D8FD0128F9D180
:100BA0000821874801F022FD00BF4021844801F060
:100BB000CDFD0128F9D1854800680A2190FBF1F2AA
:100BC00001FB1200814909680A2291FBF2F100EB56
:100BD0000110C0B28DF800007D4800680A2190FB2A
:100BE000F1F201FB12007A4909680A2291FBF2F145
:100BF00000EB0110C0B28DF80100764800680A21B0
:100C000090FBF1F201FB1200724909680A2291FB84
:100C1000F2F100EB0110C0B28DF80200212168480A
:100C200001F0E4FC00BF4021654801F08FFD012880
:100C3000F9D10521624801F0D9FC00BF402160488C
:100C400001F084FD0128F9D130215D4801F0CEFC8E
:100C500000BF40215A4801F079FD0128F9D1072150
:100C6000574801F0C3FC00BF4021554801F06EFD1C
:100C70000128F9D19DF80210514801F0B7FC00BFDE
:100C800040214F4801F062FD0128F9D19DF8011083
:100C90004B4801F0ABFC00BF4021494801F056FD34
:100CA0000128F9D19DF80010454801F09FFC00BFD4
:100CB0004021434801F04AFD0128F9D108BD10B593
:100CC0000121414802F007FB01282ED1424800686B
:100CD000401C41490860084600680A2825DDFFF7E6
:100CE00025FF3A480068401C3849086008460068FB
:100CF0003C2817DB0020086035480068401C344958
:100D00000860084600683C280CDB00200860314879
:100D10000068401C2F49086008460068182801DB5D
:100D20000020086000202C4908600121264802F0BC
:100D3000E3FA10BD7FB505460C460121084601F0D7
:100D400030FA0195ADF800400020ADF80800ADF88C
:100D5000020069464FF0804001F005FE0122114675
:100D6000900702F0A1FA0121880701F085FE1C20FE
:100D70008DF80C0000208DF80D0002208DF80E007B
:100D800001208DF80F0003A800F033FE7FBD10B5E1
:100D90000121880702F09FFA58B11048008840F4FA
:100DA00000400E4908800121880702F0A5FA0021C1
:100DB00016E019E000040040180000202C0000207C
:100DC0000048004088824142000800401C0000208A
:100DD00020000020240000202800002030000020F7
:100DE0004FF0804001F048FE10BD000010B52021FA
:100DF000474801F0ABFC00B3454801F0FBFBC4B22F
:100E00004448008800F40040B8B942480088B0F572
:100E1000C87F13DA00214FF0804001F0EDFD3D481E
:100E2000008818B90121880701F026FE3949088891
:100E3000411C384A118038490C5405E03548008877
:100E400040F400403349088010BD10B588B0044616
:100E50002F4801F0B1FA0121022001F059F90121D6
:100E6000880401F09EF94FF44060059002208DF84F
:100E700018008DF8190000208DF81A0001208DF857
:100E80001B0005A9254800F0A5FE07220B212348D9
:100E900000F02BFF07220A21204800F026FF0194D2
:100EA0000020ADF80800ADF80A00ADF80C00ADF870
:100EB00010000C20ADF80E0001A9154801F0E3FA6E
:100EC000012240F22551124801F01BFC012110487B
:100ED00001F061FB27208DF81C0002208DF81D0019
:100EE00003208DF81E0001208DF81F0007A800F0D8
:100EF00080FD42F2CF016320FFF71CFF00214FF07D
:100F0000804001F0B9FD00200249088008B010BD02
:100F10000048004030000020300200200004024061
:100F20001CB50121072001F0F3F81A2000900220DF
:100F30008DF8050000208DF8060001208DF80700CF
:100F40006946FE4800F046FE2420009000208DF8FF
:100F500004006946F94800F03DFE01221021F748DF
:100F600000F0B8FE01220221F44800F0B3FE1CBDDF
:100F700070B505460E4600221021F04800F0AAFE8A
:100F800000241BE000220221EC4800F0A3FE05F043
:100F9000800028B101220821E84800F09BFE04E00F
:100FA00000220821E54800F095FE01220221E348D5
:100FB00000F090FE6806050E601CC4B2082CE1DB50
:100FC00000241BE000220221DC4800F083FE06F032
:100FD000800028B101220821D84800F07BFE04E0FF
:100FE00000220821D54800F075FE01220221D348D5
:100FF00000F070FE7006060E601CC4B2082CE1DB27
:1010000001221021CD4800F065FE70BD70B5064686
:10101000002400221021C94800F05CFE00251BE0DE
:1010200000220221C54800F055FE06F0800028B1DC
:1010300001220821C14800F04DFE04E000220821F1
:10104000BE4800F047FE01220221BC4800F042FEEB
:101050007006060E681CC5B2082DE1DB002516E0FF
:1010600000220221B54800F035FE6006040E012280
:101070000221B24800F02EFE0421B04800F00CFE20
:1010800010B144F0010400E000BF681CC5B2082D97
:10109000E6DB01221021A94800F01CFE204670BDAD
:1010A00010B5B3218020FFF763FF10BD10B52DED03
:1010B000108B86B09FEDA20AF0EE40DA9FEDA10AF8
:1010C000B0EE40DA9FEDA00AF0EE409AB321802006
:1010D000FFF74EFF00BF2021984800F0DDFD0028FB
:1010E000F9D10120FFF792FF04020220FFF78EFFE3
:1010F0000443640800EE104AB8EE400A10EE100AED
:1011000004F04EF941EC1C0B9FED900B53EC102BAF
:1011100003F0C8FC41EC1E0B9FED8E0B53EC102B23
:1011200003F054FE41EC1F0B03F0D6FB08EE100A4F
:101130009FED8A0A38EE400A10EE101A084604F0B5
:101140002FF941EC1C0B9FED860B53EC102B03F099
:101150003DFE41EC1E0B18EE100A04F021F941ECA3
:101160001F0B53EC1E2B03F0E9FB9FED7F0B53ECA1
:10117000102BCDE902019DED020B51EC100B03F099
:10118000DDFBCDE904019DED040B51EC100B03F0E8
:10119000A3FB08EE100AB1EE4DAA2DEE0D0AF1EEFA
:1011A000000AF0EE40AA40EEE9AAB1EE000A29EEEC
:1011B000800A80EE2DBAB0EE000A69EE80BAB0EE79
:1011C0006A0A0BEE080AB0EE409A1BEE900A04F091
:1011D000E7F841EC1F0B1AEE100A04F0E1F8CDE934
:1011E000000119EE100A04F0DBF841EC1E0BB0EE22
:1011F0004E0AF0EE6E0A03F015FBB0EE40CAF0EEB8
:1012000060CA9DED000B53EC102B51EC1C0B03F04E
:1012100095FB53EC1F2BCDE902019DED020B51EC28
:10122000100B03F03FFCCDE904019DED040B51ECE4
:10123000100B03F051FB09EE100AB5EEC09AF1EE67
:1012400010FA05DBB0EE490A06B0BDEC108B10BDFC
:10125000F0EE488A9FED460AB0EE409A18EE900AEA
:1012600004F09EF841EC1F0B9FED420B53EC102B4A
:1012700003F0ACFD41EC1C0B19EE100A04F090F8E1
:1012800041EC1E0B53EC1C2B03F058FBCDE9040181
:101290009DED040B51EC100B03F01EFB09EE100A40
:1012A00028EE880AF0EE408A18EE900A04F078F8EA
:1012B00041EC1E0B9FED310B53EC102B03F086FD20
:1012C00041EC1C0B19EE100A04F06AF853EC1C2BCD
:1012D000CDE904019DED040B51EC100B03F02EFB46
:1012E00041EC1F0B03F0F8FA09EE100A28EE880A09
:1012F000F0EE408A18EE900A04F052F89FED210BB0
:1013000053EC102BCDE904019DED040B51EC100BB7
:1013100003F05CFD41EC1E0B19EE100A04F040F8DE
:1013200041EC1F0B53EC1E2B03F050FF41EC1C0B48
:1013300003F0D2FA09EE100A28E000000000024093
:101340000000C8423211803B7F051BB50000000041
:101350000000E0400000000000E07A400000484249
:101360002F6EA301BC05623F9A9999999999E13F23
:101370001F0572C3F163CC5D4BC80140BB82C87DC1
:10138000062F653F93C266C7E03DD43E28EE880A2B
:10139000F0EE408A18EE900A04F002F89FEDBE0BC2
:1013A00053EC102BCDE904019DED040B51EC100B17
:1013B00003F00CFD41EC1F0B19EE100A03F0F0FFD7
:1013C00041EC1E0B53EC1F2B03F000FF41EC1C0BF8
:1013D00003F082FA09EE100A28EE880AF0EE408A3D
:1013E00018EE900A03F0DCFF41EC1F0B9FEDAC0BF5
:1013F00053EC102B03F0EAFC41EC1C0B19EE100A25
:1014000003F0CEFF53EC1C2BCDE904019DED040B42
:1014100051EC100B03F092FA41EC1E0B03F05CFA56
:1014200009EE100AB0EE490A0EE710B52DED048B57
:10143000B0EE408A9FED9C0AB4EEC08AF1EE10FA3D
:101440000ADD9FED9A0AB4EEC08AF1EE10FA03D2DB
:101450009FED970AB0EE408A9FED960AB4EEC08ADF
:10146000F1EE10FA0ADD9FED940AB4EEC08AF1EEB7
:1014700010FA03D29FED910AB0EE408A9FED900AD8
:10148000B4EEC08AF1EE10FA0ADD9FED8E0AB4EEDA
:10149000C08AF1EE10FA03D29FED8B0AB0EE408ABB
:1014A0009FED8A0AB4EEC08AF1EE10FA0ADD9FEDD4
:1014B000880AB4EEC08AF1EE10FA03D29FED850AD5
:1014C000B0EE408ABBEE0B0AB4EEC08AF1EE10FA21
:1014D0000ADDBBEE070AB4EEC08AF1EE10FA03D2C1
:1014E0009FED7D0AB0EE408A18EE100A03F058FF17
:1014F00041EC190B9FED790B53EC102B03F064FDBD
:1015000010D218EE100A03F04BFF41EC190B9FEDBF
:10151000750B53EC102B03F01DFC03D29FED730AE7
:10152000B0EE408AB3EE080AB4EEC08AF1EE10FACB
:101530000ADDB3EE0C0AB4EEC08AF1EE10FA03D263
:101540009FED6B0AB0EE408A1FED7C0AB4EEC08AB4
:10155000F1EE10FA0ADD9FED670AB4EEC08AF1EEF3
:1015600010FA03D29FED640AB0EE408A9FED630A41
:10157000B4EEC08AF1EE10FA0ADD9FED610AB4EE16
:10158000C08AF1EE10FA03D29FED5E0AB0EE408AF7
:101590009FED5D0AB4EEC08AF1EE10FA0ADD9FED10
:1015A0005B0AB4EEC08AF1EE10FA03D29FED580A3E
:1015B000B0EE408A9FED570AB4EEC08AF1EE10FA01
:1015C0000ADD9FED550AB4EEC08AF1EE10FA03D29F
:1015D0009FED520AB0EE408A9FED510AB4EEC08AE8
:1015E000F1EE10FA0ADD9FED4F0AB4EEC08AF1EE7B
:1015F00010FA03D29FED4C0AB0EE408A9FED4B0AE1
:10160000B4EEC08AF1EE10FA0ADD9FED490AB4EE9D
:10161000C08AF1EE10FA03D29FED460AB0EE408A7E
:101620009FED450AB4EEC08AF1EE10FA0ADD9FED97
:10163000430AB4EEC08AF1EE10FA03D29FED400ADD
:10164000B0EE408A9FED3F0AB4EEC08AF1EE10FA88
:101650000ADD9FED3D0AB4EEC08AF1EE10FA03D226
:101660009FED3A0AB0EE408A9FED390AB4EEC08A87
:10167000F1EE10FA0ADD9FED370AB4EEC08AF1EE02
:1016800010FA03D29FED340AB0EE408AB0EE480A59
:10169000BDEC048B10BD0000CE563151E2425E3EDF
:1016A0003EFAE46127F3E43D0000FEC20000F6C20A
:1016B0000000FAC20000CCC20000C4C23333C9C269
:1016C00000009AC2000092C29A9997C2000050C2CC
:1016D000000040C233334BC23333C3C100000000AB
:1016E0000000F8BF000000000000F83F000000000C
:1016F0009A99CD410000584266664E4200009842D9
:101700000000A04266669B420000CC420000D4422A
:101710000000D0420000004300000443666602431C
:1017200000001C4300001E439A191D43000037436C
:101730000000394333333843000051430000554320
:101740003333534300006D43000071439A996E4355
:1017500000008443000086436626854310B5044696
:101760006FF0040000F092F9E11704EB5171C1F33E
:10177000C701394A11701046007800EB4001C1EBF7
:10178000C0104FF6FF7101EAC0003449088010BD57
:101790000146314A12784A434FF0E0235A61002251
:1017A0009A611A46126942F001021A6100BF4FF0B5
:1017B000E022106900F001021AB100F48032002A20
:1017C000F5D04FF0E022126922F001024FF0E02341
:1017D0001A6100229A6170470146204A12884A43E2
:1017E0004FF0E0235A6100229A611A46126942F0D2
:1017F00001021A6100BF4FF0E022106900F00102FF
:101800001AB100F48032002AF5D04FF0E0221269BC
:1018100022F001024FF0E0231A6100229A61704722
:1018200070B504464FF4077094FBF0F0C6B24FF465
:10183000077094FBF0F100FB114085B205E04FF416
:101840000770FFF7C9FF701EC6B2002EF7D115B1A1
:101850002846FFF7C1FF70BD320000203400002091
:1018600000BF704700BF4C4A128802F04002002AB5
:10187000F9D0C2B2484B9A80704710B588B0044680
:101880000121084600F044FC0121102000F09AFCE0
:1018900007220921414800F028FA07220A213F487F
:1018A00000F023FA4FF4C060069002208DF81C006F
:1018B0008DF81D0000208DF81E0001208DF81F00FE
:1018C00006A9364800F086F902940020ADF80C0015
:1018D000ADF80E00ADF81000ADF814000C20ADF816
:1018E000120002A92C4800F0CEFD01212A4800F088
:1018F00052FE012240F22551274800F002FF252028
:101900008DF8040003208DF805008DF806000120F5
:101910008DF8070001A800F06CF808B010BD10B5F4
:1019200040F225511C4800F027FF10B31A4800F080
:1019300061FEC4B21A48008800F40040C8B91848D3
:10194000008800F4804060B10A2C03D000201449C4
:10195000088020E01248008840F4004010490880C8
:1019600019E00D2C06D10E48008840F480400C4947
:10197000088010E00A480088C0F30D0009490C54A3
:1019800007480088401C0649088008460088C72888
:1019900001DD0020088010BD001001400000024061
:1019A0003C000020C0030020094880470948004748
:1019B000FEE7FEE7FEE7FEE7FEE7FEE7FEE7FEE7FF
:1019C000FEE7FEE704480549054A064B704700005C
:1019D0002908000889010008E8040020E80A00201E
:1019E000E8060020E806002032490143324A11602F
:1019F000704770B5002100230F22C4781CB32E4C11
:101A0000246804F4E064C4F5E064C4F30721C1F180
:101A10000404E3B20A4144789C40E1B28478144063
:101A200021430C07210E254C05786155047804F0FC
:101A30001F050124AC4005786D11AD0005F1E025CE
:101A4000C5F8004109E0047804F01F050124AC400A
:101A50001B4D0678761145F8264070BD194A0A409C
:101A60000243154B1B1F1A60704739B1124A121DF1
:101A700012680243104B1B1D1A6006E00E4A121D2D
:101A8000126882430C4B1B1D1A607047042808D152
:101A90004FF0E021096941F004014FF0E0221161AB
:101AA00007E04FF0E021096921F004014FF0E02246
:101AB000116170470000FA050CED00E000E400E061
:101AC00080E100E080FFFF1F10B504469848844283
:101AD00008D10121084600F086FB0021012000F01A
:101AE00082FB76E09348844208D10121022000F075
:101AF0007AFB0021022000F076FB6AE08E488442E7
:101B000008D10121042000F06EFB0021042000F028
:101B10006AFB5EE08948844208D10121082000F078
:101B200062FB0021082000F05EFB52E08448844202
:101B300008D10121102000F056FB0021102000F0F8
:101B400052FB46E07F48844208D10121202000F06A
:101B50004AFB0021202000F046FB3AE07A4884420C
:101B600008D10121402000F03EFB0021402000F080
:101B70003AFB2EE07548844208D10121802000F014
:101B800032FB0021802000F02EFB22E070488442CE
:101B900008D10121801500F026FB0021A01500F0DE
:101BA00022FB16E06B48844208D10121401500F069
:101BB0001AFB0021601500F016FB0AE0664884421B
:101BC00007D10121001500F00EFB0021201500F0C7
:101BD0000AFB10BDF0B50A4600210023002400BF17
:101BE0003DE0012505FA01F3156805EA03049C426E
:101BF00034D105684F000326BE40B5430560157912
:101C00004E00B5400668354305601579012D02D0B8
:101C10001579022D16D185684F000326BE40B543C5
:101C2000856055794E00B5408668354385604568C6
:101C300001268E40B5434560456896798E40B6B220
:101C400035434560C5684F000326BE40B543C560B7
:101C5000D5794E00B540C6683543C560491C10298A
:101C6000BFD3F0BD4FF6FF710160002101714171DA
:101C70008171C171704708B54FF480320092009AAB
:101C80000A430092009AC261C161009AC261C269AE
:101C90000092C269009208BD0246002013690B4001
:101CA0000BB1012000E0002070470146086980B2B6
:101CB00070470246002053690B400BB1012000E041
:101CC000002070470146486980B270470183704721
:101CD000418370470AB1018300E04183704741614D
:101CE000704742694A4042617047F0B500230024C2
:101CF0004D07ED0E02FA05F3CE1000F1200555F860
:101D000026504E07F70E0F26BE40B543CF1000F108
:101D1000200646F82750CE1000F1200555F8265031
:101D200045EA0304CE1000F1200545F82640F0BD39
:101D3000000002400004024000080240000C024083
:101D4000001002400014024000180240001C024033
:101D5000002002400024024000280240F9480068A8
:101D600040F00100F74908600020F649083108609A
:101D7000F4480068F4490840F2490860F348091D36
:101D80000860F348EF4984310860F0481038091DB5
:101D90000860EC48006820F48020EA4908600020D0
:101DA000E8490C310860E7498C3108607047002130
:101DB000E44A921C117011460870704710B5014634
:101DC0000022002300204A11012A02D1DD4C2368A1
:101DD00008E0022A03D1DB4C7034236802E0D94CBE
:101DE0007434236801F01F02012494401C400CB19C
:101DF000012000E0002010BD38B500200090002434
:101E0000002500BF3120FFF7D9FF05460098401C90
:101E100000900098B0F5A04F01D0002DF2D03120F5
:101E2000FFF7CCFF08B1012400E00024204638BDB4
:101E300001460020C34A106820F0F80040EAC100C3
:101E400010607047C349086070470021BD4A703276
:101E500011701170012802D004280AD104E0012178
:101E6000B84A7032117005E00521B64A703211701F
:101E700000E000BF00BF7047B7490860704770B509
:101E8000049C41EA82150126C6EB530645EA064545
:101E9000054345EA0465AB4E361D356070BDAD495E
:101EA00008667047820142EA0172A64B84331A60C9
:101EB0007047A8498866704710B5830143EA0163FB
:101EC00043EA02739F4C8834236010BDA149086720
:101ED0007047A049C864704702460020994B0833F8
:101EE000186820F0EC6042EA01031843954B083370
:101EF0001860704702460020924B0833186820F0A3
:101F0000784042EA010318438E4B0833186070474B
:101F1000014600208B4A0832106820F00300084375
:101F20001060704787480830006800F00C00704768
:101F300001460020834A0832106820F0F000084370
:101F400010607047014600207E4A0832106820F475
:101F5000E05008431060704701460020794A08327B
:101F6000106820F4604040EAC10010607047F0B58E
:101F7000002100220024022500260223714F083789
:101F80003F6807F00C0121B1042905D0082937D199
:101F900005E0724F076036E0714F076033E0694F2C
:101FA0003F1D3F68C7F38056664F3F1D3F6807F0EF
:101FB0003F036EB16A4FB7FBF3F7DFF888C10CF14E
:101FC000040CDCF800C0CCF3881C07FB0CF40CE01C
:101FD000624FB7FBF3F7DFF86CC10CF1040CDCF8CF
:101FE00000C0CCF3881C07FB0CF4564F3F1D3F6824
:101FF000C7F301477F1C7D00B4FBF5F7076002E0E3
:10200000564F076000BF00BF4E4F08373F6807F0CC
:10201000F0010909534F7A5C0768D7404760494F80
:1020200008373F6807F4E051890A4E4F7A5C4768E9
:10203000D7408760434F08373F6807F46041490B3A
:10204000484F7A5C4768D740C760F0BD002100F474
:102050004072B2F5407F0AD13A4A0832116821F441
:10206000F811414A02401143364A08321160354A9C
:1020700070321268C0F30B031A43324B70331A608C
:102080007047354944390860704733494039086022
:10209000704736490860704701460020294A8C3253
:1020A000106820F01F004A1E1043264A8C32106030
:1020B000704701460020234A8C32106820F4F85003
:1020C0004A1E40EA02201F4A8C32106070470146C7
:1020D00000201C4A8C32106820F440100843106025
:1020E000704701460020174A8C32106820F44000E7
:1020F00008431060704701460020124A8C32106875
:1021000020F4403008431060704719490860704758
:1021100039B10C4A3032126802430A4B30331A602C
:1021200006E0084A303212688243064B30331A60A8
:102130007047F9B1034A343212680243014B343319
:102140001A601CE000380240FFFFF6EA103000245D
:102150000030002000004742800E47420024F40077
:1021600000127A003E000020FFFCFF0F5C01474296
:10217000E01147428F4A126882438E4B1A607047C3
:1021800039B18C4A121D126802438A4B1B1D1A601A
:1021900006E0884A121D12688243864B1B1D1A6096
:1021A000704739B1834A0C3212680243814B0C33B9
:1021B0001A6006E07F4A0C32126882437D4B0C3372
:1021C0001A60704739B17B4A103212680243794B6A
:1021D00010331A6006E0774A103212688243754B5A
:1021E00010331A60704739B1724A243A12680243B8
:1021F000704B243B1A6006E06E4A243A1268824310
:102200006C4B243B1A60704739B16A4A203A126815
:102210000243684B203B1A6006E0664A203A126887
:102220008243644B203B1A60704739B1614A1C3AC3
:10223000126802435F4B1C3B1A6006E05D4A1C3A81
:10224000126882435B4B1C3B1A60704739B1594A94
:10225000143A12680243574B143B1A6006E0554A81
:10226000143A12688243534B143B1A60704739B1D9
:10227000504A103A126802434E4B103B1A6006E077
:102280004C4A103A126882434A4B103B1A6070471E
:1022900039B1484A1C3212680243464B1C331A605B
:1022A00006E0444A1C3212688243424B1C331A60D7
:1022B000704739B13F4A2032126802433D4B203308
:1022C0001A6006E03B4A203212688243394B2033C1
:1022D0001A60704739B1374A243212680243354BCD
:1022E00024331A6006E0334A243212688243314BA9
:1022F00024331A60704739B12E4A2C3212680243D7
:102300002C4B2C331A6006E02A4A2C321268824386
:10231000284B2C331A60704739B1264A3032126884
:102320000243244B30331A6006E0224A30321268EE
:102330008243204B30331A607047012808D11D4971
:102340003C31096841F008011A4A3C32116007E04B
:1023500018493C31096821F00801164A3C321160E5
:10236000704739B1134A273A12780243114B273B81
:102370001A7006E00F4A273A127882430D4B273B2A
:102380001A7070470B484030006840F0807009496F
:1023900040310860704701460020064A283A12681A
:1023A0000A400AB1012000E00020704701492639A7
:1023B000087070473438024010B50446FA48844229
:1023C00008D101211020FFF752FF00211020FFF754
:1023D0004EFF57E0F548844209D101214804FFF738
:1023E00035FF00214FF40030FFF730FF4AE0F0489E
:1023F000844209D101218804FFF728FF00214FF40E
:102400008020FFF723FF3DE0EA48844209D1012103
:10241000C804FFF71BFF00214FF40020FFF716FF51
:1024200030E0E548844209D101210805FFF70EFF9D
:1024300000214FF48010FFF709FF23E0DF488442BA
:1024400008D101212020FFF712FF00212020FFF7F3
:102450000EFF17E0DA48844209D101218807FFF70F
:10246000F5FE00214FF08040FFF7F0FE0AE0D5486E
:10247000844207D101214005FFF7E8FE00216005F5
:10248000FFF7E4FE10BD2DE9FF4705460E46002488
:10249000A14600BFA046B08900B100BF2C8A24F439
:1024A0004054F08804432C82AC8941F20C60844390
:1024B000B08831890843718908430443AC81AC8AF0
:1024C00024F44074B0890443AC826846FFF74FFDA2
:1024D000B548854202D0B948854202D1DDF80C905A
:1024E00001E0DDF80890A88900F4004040B109EB54
:1024F000C90000EB091031684900B0FBF1F707E0B3
:1025000009EBC90000EB091031688900B0FBF1F755
:102510006420B7FBF0F004012009642101FB10786E
:10252000A88900F4004040B1322000EBC800B0FBA5
:10253000F1F000F00700044308E0322000EB08103F
:102540006421B0FBF1F000F00F0004432C81BDE8E2
:10255000FF874FF41651016000218180C180018105
:102560000C21418100218181704710B50246002075
:10257000108A20F470600B884C8823438C88234396
:10258000CC8823431843108210BD00210180418074
:102590008180C180704721B1828942F400528281DA
:1025A00004E082894DF6FF731A4082817047028BE6
:1025B00002F47F420283028B0A430283704721B1F7
:1025C000828942F40042828103E08289C2F30E02D2
:1025D0008281704721B1828A42F40062828204E0E3
:1025E000828A4FF2FF731A4082827047C1F3080259
:1025F0008280704701468888C0F308007047028ACD
:102600004FF6F0731A400282028A0A430282704730
:1026100021B1828942F00202828104E082894FF670
:10262000FD731A408281704782894FF2FF731A400E
:10263000828182890A4382817047028A4FF6DF7362
:102640001A400282028A0A430282704721B1028A3A
:1026500042F48042028204E0028A4BF6FF731A4081
:1026600002827047818941F001018181704721B167
:10267000828A42F00802828204E0828A4FF6F7736F
:102680001A4082827047028BD2B20283028B42EAE6
:1026900001220283704721B1828A42F020028282A5
:1026A00004E0828A4FF6DF731A408282704721B1BC
:1026B000828A42F01002828204E0828A4FF6EF732F
:1026C0001A4082827047828A4FF6FB731A408282D8
:1026D000828A0A438282704721B1828A42F00202D2
:1026E000828204E0828A4FF6FD731A40828270472C
:1026F0001AB1838A0B43838202E0838A8B438382ED
:102700007047F0B50346002400260025002040F65F
:102710006A17B94200D100BF1846C1F3421401F054
:102720001F06012707FA06F5012C01D10C3004E041
:10273000022C01D1103000E014301AB107682F4389
:10274000076002E00768AF430760F0BD0246002063
:10275000B1F5007F00D100BF13880B400BB1012001
:1027600000E00020704701F40072B2F5007F00D154
:1027700000BFCA430280704770B5024600240023A0
:102780000025002040F66A16B14200D100BFC1F317
:10279000421501F01F03012606FA03F3012D13D1A0
:1027A0009689334017E000000010014000440040CB
:1027B00000480040004C0040005000400014014020
:1027C00000780040007C0040022D02D1168A334080
:1027D00001E0968A33400C12012606FA04F41688AA
:1027E000344013B10CB1012000E0002070BD10B5E1
:1027F0000022002340F66A14A14200D100BF0A1251
:1028000001249440A3B2DC43048010BD10B50446FB
:10281000FE48844208D101210846FFF728FD002127
:102820000120FFF724FD9DE0B4F1804F08D1012184
:102830000846FFF70BFD00210120FFF707FD91E09F
:10284000F348844208D101210220FFF7FFFC002158
:102850000220FFF7FBFC85E0EE48844208D101210D
:102860000420FFF7F3FC00210420FFF7EFFC79E0E0
:10287000E948844208D101210820FFF7E7FC002144
:102880000820FFF7E3FC6DE0E448844208D1012111
:102890001020FFF7DBFC00211020FFF7D7FC61E0E0
:1028A000DF48844208D101212020FFF7CFFC00211E
:1028B0002020FFF7CBFC55E0DA48844208D1012103
:1028C0000220FFF7D4FC00210220FFF7D0FC49E0F2
:1028D000D548844209D101210804FFF7C8FC002132
:1028E0004FF48030FFF7C3FC3CE0D048844209D16C
:1028F00001214804FFF7BBFC00214FF40030FFF733
:10290000B6FC2FE0CA48844209D101218804FFF7B0
:10291000AEFC00214FF48020FFF7A9FC22E0C5485F
:10292000844208D101214020FFF790FC0021402083
:10293000FFF78CFC16E0C048844208D101218020BA
:10294000FFF784FC00218020FFF780FC0AE0BB48F1
:10295000844207D101218015FFF778FC0021A015E2
:10296000FFF774FC10BD00220288A84B98420ED0DD
:10297000AC4B98420BD0B0F1804F08D0A44B98429A
:1029800005D0A44B984202D0A34B984204D14FF6F5
:102990008F731A404B881A43A04B984207D0A04B24
:1029A000984204D04FF6FF431A400B891A43028025
:1029B0004B68C3620B880385944B984202D0994BB5
:1029C000984201D18B7A03860123838270474FF0AE
:1029D000FF31416000210180018141808172704797
:1029E0000185828270470A46002101884FF68F7365
:1029F000194011430180704741627047C1627047BE
:102A00000146486A70470146088D704721B1028827
:102A100042F00202028004E002884FF6FD731A4081
:102A20000280704721B1028842F00402028004E073
:102A300002884FF6FB731A400280704721B102886A
:102A400042F08002028004E002884FF67F731A4051
:102A50000280704702884FF6F7731A40028002889E
:102A60000A430280704702884FF6FF431A400280F3
:102A700002880A430280704721B1028842F00102B5
:102A8000028004E002884FF6FE731A40028070470D
:102A900070B5002400220023058C4FF6FE763540E9
:102AA0000584028C8388048B4FF68F752C40B51EED
:102AB0002C400D882C43751E2A408D892A434D8851
:102AC0002A43524DA84202D0564DA84213D14FF688
:102AD000F7752A40CD892A434FF6FB752A408D8829
:102AE0002A434FF6FF652B404FF6FF552B400D8ACA
:102AF0002B434D8A2B43838004838D684563028476
:102B000070BD70B5002400220023058C4FF6EF76CF
:102B100035400584028C8388048B48F6FF752C4071
:102B20004FF6FF452C400D884FF6FF7606EA052547
:102B30002C434FF6DF752A408D8906EA05152A4396
:102B40004D8806EA05152A43304DA84202D0354D7E
:102B5000A8421DD14FF67F752A40CD894FF6FF76EA
:102B600006EA05152A434FF6BF752A408D8806EA06
:102B700005152A434FF6FF352B404FF2FF752B40CA
:102B80000D8A06EA85052B434D8A06EA85052B4307
:102B9000838004838D688563028470BD70B50024D2
:102BA00000220023058C4FF6FF6635400584028C19
:102BB0008388848B4FF68F752C404FF6FC752C4024
:102BC0000D882C434FF6FF552A408D894FF6FF762E
:102BD00006EA05252A434D8806EA05252A430B4DBA
:102BE000A84202D00F4DA84238D14FF2FF752A40BB
:102BF000CD894FF6FF7606EA05252A434FF6FF35C5
:102C00002A408D8806EA05252A4319E00000014084
:102C10000004004000080040000C0040001000408C
:102C20000014004000040140004001400044014005
:102C30000048014000180040001C004000200040F7
:102C40004EF6FF752B404DF6FF752B400D8A06EAB8
:102C500005152B434D8A06EA05152B438380848393
:102C60008D68C563028470BD70B500220023002406
:102C7000058C4EF6FF7635400584038C8488828B64
:102C800048F6FF752A404FF6FF452A400D884FF65B
:102C9000FF7606EA05252A434DF6FF752B408D8900
:102CA00006EA05352B434D8806EA05352B43FE4DD4
:102CB000A84202D0FD4DA84208D14BF6FF752C402A
:102CC0000D8A4FF6FF7606EA85152C4384808283B1
:102CD0008D680564038470BD00210180418081807E
:102CE00081608181C18101824182704770B5034654
:102CF000002000241846183001258D40ACB21D8CF0
:102D0000A5431D8409B108290AD100EB61000568BB
:102D10004FF68F76354005600568154305600FE076
:102D20000D1FC5F34E052844056848F6FF7635406B
:102D3000056005684FF6FF7606EA02263543056012
:102D400070BD4163704781637047C1637047016420
:102D500070470A460021018B4FF68F7319401143CB
:102D6000018370470A460021018B48F6FF73194022
:102D70004FF6FF7303EA02231943018370470A46A3
:102D80000021818B4FF68F73194011438183704767
:102D90000A460021818B48F6FF7319404FF6FF73F6
:102DA00003EA02231943818370470A460021018BFD
:102DB0004FF6F77319401143018370470A4600210B
:102DC000018B4FF2FF7319404FF6FF7303EA0223A2
:102DD0001943018370470A460021818B4FF6F77330
:102DE00019401143818370470A460021818B4FF2BD
:102DF000FF7319404FF6FF7303EA022319438183DF
:102E000070470A460021018B4FF6FB7319401143AE
:102E1000018370470A460021018B4FF6FF331940AA
:102E20004FF6FF7303EA02231943018370470A46F2
:102E30000021818B4FF6FB7319401143818370474A
:102E40000A460021818B4FF6FF3319404FF6FF737E
:102E500003EA02231943818370470A460021018B4C
:102E60004FF67F7319401143018370470A460021D2
:102E7000018BC1F30E014FF6FF7303EA02231943DE
:102E8000018370470A460021818B4FF67F731940FA
:102E90001143818370470A460021818BC1F30E01E3
:102EA0004FF6FF7303EA02231943818370470A46F2
:102EB0000021018C4FF6FD731940114301847047C6
:102EC0000A460021018C4FF6F77319401143018423
:102ED00070470A460021018C4FF6DF7319404FF608
:102EE000FF7303EA02131943018470470A46002165
:102EF000018C4FF67F7319404FF6FF7303EA0213FC
:102F00001943018470470A460021018C4FF6FF5394
:102F100019404FF6FF7303EA0223194301847047F7
:102F20000A460021018C4FF2FF7319404FF6FF73E0
:102F300003EA02231943018470470A460021018CE9
:102F40004DF6FF7319404FF6FF7303EA023319433E
:102F50000184704730B5002301248C40A3B2048C57
:102F60009C430484048C02FA01F5ADB22C43048422
:102F700030BD30B5002304248C40A3B2048C9C43A4
:102F80000484048C02FA01F5ADB22C43048430BDF4
:102F9000828B4FF2FF331A408283828B4FF6FF738E
:102FA00003EA01231A4382837047F0B50C461546A5
:102FB000002100220026078C4EF6FF7C07EA0C0752
:102FC0000784818B028C4FF6FF7707EA043640F6C0
:102FD000FF4739404FF6FF7707EA052739434FF699
:102FE000FF7707EA0337394345F6FF773A4046F45F
:102FF00080573A4381830284F0BD828B4FF6F3738E
:103000001A408283828B0A4382837047F0B50C4654
:103010001546002100220026078C4FF6FF6C07EAB8
:103020000C070784818B028C4FF6FF7707EA042692
:103030004FF60C7739404FF6FF7707EA03172F4317
:1030400039434FF2FF573A4046F480773A43818341
:103050000284F0BD028B4FF2FF331A400283028BD1
:103060004FF6FF7303EA01231A4302837047F0B55A
:103070000C461546002100220026078C4FF6EF7CF7
:1030800007EA0C070784018B028C4FF6FF7707EAEB
:10309000041640F6FF4739404FF6FF7707EA03373B
:1030A00039434FF6FF7703E0000001400004014080
:1030B00007EA052739434FF65F773A4046F0100795
:1030C0003A4301830284F0BD028B4FF6F3731A403A
:1030D0000283028B0A4302837047F0B50C46154603
:1030E00000210022068C4FF6FE773E400684018BBD
:1030F000028C4FF60C7631407E1C06EA03162E43F6
:1031000031434FF6F576324044F0010632430183F5
:103110000284F0BD70B505460C46208850B923895D
:10312000A28861882846FFF7D8FFE1882846FFF784
:10313000CBFF25E0208804280AD12389A288618852
:103140002846FFF794FFE1882846FFF783FF17E042
:10315000208808280AD12389A28861882846FFF799
:1031600055FFE1882846FFF748FF09E02389A28838
:1031700061882846FFF719FFE1882846FFF708FF16
:1031800070BD002101804180012181800021C1802A
:10319000018170472DE9F04105460C4600260127C4
:1031A000608808B9022600E00026A088012801D125
:1031B000022700E001272088A0B92389A28861881E
:1031C0002846FFF78AFFE1882846FFF77DFF23891D
:1031D0003A4631462846FFF74AFFE1882846FFF77E
:1031E00039FF13E02389A28861882846FFF73FFF53
:1031F000E1882846FFF72EFF23893A4631462846C4
:10320000FFF76BFFE1882846FFF75EFFBDE8F0811E
:103210000146486B70470146886B70470146C86B92
:1032200070470146086C70470A884B881A438B88A0
:103230001A43CB881A430B891A434B891A438B894B
:103240001A43A0F84420704700210180418081800A
:10325000C180018141818181704731B1B0F8442042
:1032600042F40042A0F8442005E0B0F84420C2F344
:103270000E02A0F84420704721B1828842F0040277
:10328000828004E082884FF6FB731A408280704788
:1032900021B1828842F00102828004E082884FF6E8
:1032A000FE731A40828070471AB183890B43838171
:1032B00002E083898B438381704781827047024695
:1032C0000020138A0B400BB1012000E00020704762
:1032D000CA430282704730B5024600200023002412
:1032E000158A05EA0103958905EA010413B10CB1B9
:1032F000012000E0002030BDCA430282704741EA4D
:103300000203A0F8483070471AB183890B438381C8
:1033100002E083898B438381704721B1828842F028
:103320000802828004E082884FF6F7731A40828098
:10333000704701894FF6F8721140018170470A46C3
:10334000002101894FF68F731940114301817047A5
:1033500030B504460D4629462046FFF7F0FF208988
:1033600040F00700208130BD2DE9F04104460D46B4
:1033700016461F46602D06D13B46012231462046A7
:10338000FFF775FE05E03B46012231462046FFF778
:10339000A4FE29462046FFF7D2FF208940F007000F
:1033A0002081BDE8F08130B50C4600210189C9B209
:1033B0004FF6FF7505EA032515432543294301818F
:1033C00030BD2DE9F04105460E46174698460024CB
:1033D00043463A4631462846FFF7E5FF2C894FF62B
:1033E000F870044044F007044FF68F70044044F036
:1033F00070042C81BDE8F081F0B504460D461646F8
:103400001F463B46324629462046FFF7CCFF20891F
:1034100040F480402081F0BD82884FF68F731A40BF
:10342000828082880A438280704702894FF6F8734F
:103430001A40028102890A430281704702894FF6CD
:103440007F731A40028102890A4302817047F0B5F6
:103450000C4615461E460021002200230189028BDE
:10346000038C4FF6F877394021434FF6FC473A403A
:1034700040F201173A434FF6DD773B404FF6FF77B6
:1034800007EA06172F433B43018102830384F0BD03
:1034900021B1828842F08002828004E082884FF667
:1034A0007F731A4082807047A0F8501070477047B1
:1034B0000FB41CB5074B06AA7B44694600900598DB
:1034C00000F0EDFB0020694600F0FCFB1CBC5DF841
:1034D00014FB00000908000070B504468569006807
:1034E000C10601D5302600E02026C00707D070BDF8
:1034F000D4E9012130469047206A401C20626D1EAD
:10350000F6D570BD70B5044685690078C00707D14F
:1035100070BDD4E9012120209047206A401C206220
:103520006D1EF6D570BD00002DE9F0410646002461
:1035300010687529314616A510D0AFF30080002819
:1035400002DA404213A507E031688A0701D512A5C7
:1035500002E0490704D511A5012401E0AFF3008082
:1035600000210A2206F1240709E0B0FBF2FCB0FBBF
:10357000F2F302FB1C00303078541846491C002836
:10358000F3D123462A463046BDE8F04100F01AB98F
:10359000000000002D0000002B00000020000000B3
:1035A0002DE9F05F894604464FF0000ADFF824B1A8
:1035B000FB44C0F820A02046E168884700287DD061
:1035C000252806D0D4E901219047206A401C2062BA
:1035D000F1E700255F462046E16888472028064637
:1035E00007DB312E05D2B81910F8200C08B10543BD
:1035F000F1E7A80701D525F00405C4F81CA00027B1
:10360000C4F818A02A2E09D0304601F048F938B382
:1036100004EB8708303EC8F8186019E059F8041B1D
:10362000204604EB87029161E1688847012F064636
:1036300018D1E069002820DA25F020051DE0D8F82F
:10364000180000EB800006EB40003038C8F8180086
:103650002046E1688847064601F021F90028EED1AE
:10366000012F0AD02E2E08D12046E16888477F1C02
:103670000646022F45F02005C4DBA069002803DAC6
:10368000404245F00105A061E80701D025F0100592
:10369000A6B1A6F14100192802D8203645F40065EC
:1036A0004A463146204625604D46FCF7A7FD60B1ED
:1036B000012807D0ED1D25F0070000E007E000F12C
:1036C000080978E705F1040975E730467AE7206ACA
:1036D000BDE8F09FE61E0000032A40F2308010F0A3
:1036E000030C00F0158011F8013BBCF1020F62449D
:1036F00098BF11F801CB00F8013B38BF11F8013B2E
:10370000A2F1040298BF00F801CB38BF00F8013BDA
:1037100011F0030300F0DB82083AC0F0088051F892
:10372000043B083A51F804CBA0E80810F5E7121D55
:103730005CBF51F8043B40F8043BAFF30080D20774
:1037400024BF11F8013B11F801CB48BF11F8012B40
:1037500024BF00F8013B00F801CB48BF00F8012B63
:1037600070474FF000020429C0F0128010F0030CE3
:1037700000F0E182CCF1040CBCF1020F18BF00F89C
:10378000012BA8BF20F8022BA1EB0C0100F0D3BA4B
:103790005FEAC17C24BF00F8012B00F8012B48BF71
:1037A00000F8012B7047704770477047704710B59D
:1037B00000F0EAFA006810BD10B5044600F0E4FA23
:1037C000046010BD2DE9F0470D4699469246044627
:1037D00000F124080168880604D5E06921F0100191
:1037E000216000E00120A84201DD471B00E0002726
:1037F000A1697A1902EB0900081AA0612078C006B5
:1038000002D42046FFF768FE002608E0D4E9012133
:103810001AF806009047206A401C761C20624E452C
:10382000F4DB2078C0060AD52046FFF755FE06E0F7
:10383000D4E9012130209047206A401C2062381EC4
:10384000A7F10107F4DC07E0D4E9012118F805002D
:103850009047206A401C2062281EA5F10105F3DC78
:103860002046FFF74FFE2078000602D50220BDE873
:10387000F0870120FBE770472DE9FF4F0C461E46FD
:103880004FF0FF378BB0D2E90001DDF860800A907D
:103890008A46C1F30A5505B93D46002108464FF056
:1038A0000000BAF1000F00F4400005DA00EB8000E0
:1038B0004FF4400101EA50004FEA9059B9F1010F6D
:1038C00000DDB9460A9850EA4A000ED044F610507E
:1038D000A5F2FF3545432F14B8F1000F1ED07542F5
:1038E000291E1EDDC9F100021CE0B8F1010F4FF0E6
:1038F000000001D0302103E0F24305E02154401CD8
:10390000B042FBDB30460022002121540B99C1F864
:103910000880C1E900200FB0BDE8F08FBD1B6D1C11
:10392000DEE74A4600DA694206A800F0B7FA06ABBD
:1039300093E8070003AB83E8070050460A9900F0BC
:1039400091FB8DE80700A0F500501F380090039808
:10395000002D0ADD42F21F014A460844002303A954
:103960000390684600F0FAFD09E0A0F500504A46D1
:103970001F38002303A90390684600F004FE8DE879
:1039800007000004000C03D04FF0FF30410800E0B6
:103990001046B8F1000F03D00022009215461EE039
:1039A000751E05D400F0F4F9303262556D1EF9D55C
:1039B000B3460122084302D000227F1C04E0207895
:1039C000302801D100227F1E002A099784D01DE0F3
:1039D000112D07DA00F0DCF9303262556D1C50EA27
:1039E0000102F5D1084302D00098C8B10EE00021D1
:1039F000681E05E0235C625C63542254401E491C2F
:103A00008142F7DBAB46A81B401E0990002004F85A
:103A10000B000B98099AC0F80880C0E9002B7AE7E0
:103A200011264FF0000857E72DE9F04F884604466D
:103A3000D21D22F0070191B0D1E90001CDE90A01C0
:103A400000F0D8FE02460B98C00F01D02D2007E0F1
:103A50002068810701D52B2002E0202101EAC00067
:103A6000032A099001D0072A05DB03464146204678
:103A700000F0D4F90BE12078800601D5E06900E080
:103A80000620B8F1650F814606D0B8F1660F18D050
:103A9000B8F1670F70D131E00020B9F1110F00903B
:103AA00001DB112301E009F101030AAA01A90CA815
:103AB000FFF7E2FEDDE90C70002609F101058346FF
:103AC00047E001204B4600904FF000470AAA01A9A9
:103AD0000CA8FFF7D1FEDDE90DB00C995D4600267C
:103AE00010B909F101000D18B9EB050003D4C0F1BC
:103AF000FF3609F10105A5EB09002BE0B9F1010F33
:103B000001DA4FF001090020B9F1110F0090484689
:103B100001DD112300E003460AAA01A90CA8FFF762
:103B2000ABFEDDE90C704D46002683462078000789
:103B30000AD4AB4500DA5D4601A8012D04DD411928
:103B400011F8011C302907D04F4502DA17F1040F94
:103B500004DA012082460FE06D1EEEE7002F02DC42
:103B6000ED1B3E4403E0781CA84200DD7D1CB81B21
:103B700000F1010A4FF000472078000703D4AA455E
:103B800001DB4FF0FF3A0021B7F1004F0DF1430880
:103B90008DF8431024D002202B23002F01DA7F421E
:103BA0002D230A21021EA0F1010000DC5FB197FB6A
:103BB000F1FC97FBF1F201FB1C7C17460CF1300C79
:103BC00008F801CDEEE7A8F101000370218809058E
:103BD00001D5452100E06521A0F1010800F8011C94
:103BE00009980FA9A1EB0807FF1D00B10120411999
:103BF00001EBEA70A1693844081A401EA0612078E0
:103C0000C00602D42046FFF767FC099828B1D4E922
:103C100001219047206A401C20622078C00622D5EE
:103C20002046FFF759FC1EE0002E04DBB34502DD01
:103C300001A8805D00E03020D4E901219047206A8E
:103C4000401C2062761CAAF101005FEA000A0AD13A
:103C500000F096F8C0680168405CD4E90121904703
:103C6000206A401C2062281EA5F10105DCDC07E06B
:103C7000D4E9012118F8010B9047206A401C20620A
:103C8000381EA7F10107F3DC2046FFF73BFC0320B9
:103C900011B041E601694A1C02610878704700B51D
:103CA0008FB0CDE901310021059105497944CDE975
:103CB000031011466846FFF773FC0FB000BD00000B
:103CC000E5FFFFFF0A6802F8010B0A60704710B5B4
:103CD000203AC0F00B80B1E81850203AA0E8185004
:103CE000B1E81850A0E81850BFF4F5AF5FEA027CC5
:103CF00024BFB1E81850A0E8185044BF18C918C034
:103D0000BDE810405FEA827C24BF51F8043B40F8D4
:103D1000043B08BF7047D20728BF31F8023B48BFB9
:103D200011F8012B28BF20F8023B48BF00F8012BF7
:103D300070474FF0000200B513469446964620396E
:103D400022BFA0E80C50A0E80C50B1F12001BFF454
:103D5000F7AF090728BFA0E80C5048BF0CC05DF8BA
:103D600004EB890028BF40F8042B08BF704748BF08
:103D700020F8022B11F0804F18BF00F8012B70477C
:103D800000487047A80400200048704788040020BD
:103D900030B5B0F10A024FEA900E71F100034EEA1D
:103DA000817EB0EB0E0061EB91014FEA101E4EEAEE
:103DB000017E10EB0E0041EB11114FEA102E4EEA7E
:103DC000016E10EB0E0041EB11214FEA104E4EEA4E
:103DD000014E10EB0E0041EB1141401841F1000182
:103DE0004FEAD00040EA41704FEAD10110EB800564
:103DF0004FEA810444EA907444EB01046D1944EBEA
:103E00000404521BA3414FF0000348BF0A3200D5FF
:103E100030BD401C41F1000130BD00002DE9F041F2
:103E20001F46044603260168072A01F4006004DBEC
:103E300008B116A505E016A503E008B115A500E038
:103E400015A521F010002060A069C01EA0610FB16F
:103E5000401EA0612046FFF73FFB4FB1D4E901218E
:103E600038469047206A401C2062C01C206206E051
:103E7000206AFAE7D4E9012115F8010B9047761E74
:103E8000F8D22046FFF73EFBBDE8F0814E414E00E0
:103E90006E616E00494E4600696E66002DE9F0477E
:103EA000814616468AB0354878440DC88DE80D0025
:103EB00032487844801C03AC0DC884E80D0041F6FC
:103EC0009B300844372190FBF1F290FBF1F5A5F10E
:103ED000800501FB12041B3C02D56442012000E076
:103EE0000020DFF898A080460027FA44AAF1BE0A15
:103EF0000EE0E0070AD03246684607EB470101238F
:103F00000AEB810100F03FFB8DE8070064107F1C85
:103F1000002CEED1194F7F44AE3F19E0E80715D0D1
:103F200007EB04100DF1180A90E80E008AE80E0065
:103F3000C068F04201D1981908903246012306A9C1
:103F400003A800F020FB03AB83E807006D10641C9E
:103F5000002DE3D14FF0010332466946B8F1000F5E
:103F600003A802D000F0FAFA01E000F00CFBC9E966
:103F70000001C9F808200AB0BDE8F0877C160000EF
:103F800000487047880400207546FFF7F9FFAE46E9
:103F900005006946534620F00700854618B020B555
:103FA000FDF710FDBDE820404FF000064FF0000780
:103FB0004FF000084FF0000B21F00701AC46ACE8D1
:103FC000C009ACE8C009ACE8C009ACE8C0098D463E
:103FD000704710B50446AFF300802046BDE810409E
:103FE000FCF72BB94FF0013C50F8042B51F8043B7F
:103FF0009A4221D1A2EB0C03934313EACC1317D1BD
:1040000050F8042B51F8043B9A4215D1A2EB0C0353
:10401000934313EACC130BD150F8042B51F8043B13
:104020009A4209D1A2EB0C03934313EACC13DBD0E1
:104030004FF00000704700BFD01A01BAB1FA81F109
:1040400001F0180122FA01F0CB40C1F12001DBB2EE
:10405000C0B2C01A2CFA01F3D11A914311EAC3116C
:10406000E6D170475FEA400C08BF91F0000F4FEABD
:104070008C234FEAC12243EA51514FEA1C5018BF2A
:1040800000F5F0404FEA300018BF41F000415FEA10
:104090006C5C00F02980BCF1FF3F08BF40F080401D
:1040A0007047130C06BF12044FF0100C4FF0000CB9
:1040B000130E04BF12020CF1080C130F04BF1201FF
:1040C0000CF1040C930F04BF92000CF1020CD30FFF
:1040D00004BF52000CF1010C11464FF00002A0F198
:1040E0001F00A0EB0C00704711F0004F08BF704795
:1040F00031F000413FF4D5AF0B0C06BF09044FF07F
:10410000100C4FF0000C0B0E04BF09020CF1080C50
:104110000B0F04BF09010CF1040C8B0F04BF8900C5
:104120000CF1020CCB0F04BF49000CF1010CCCF1D7
:104130002003A0EB0C0022FA03F302FA0CF241EA8E
:10414000030100F10100704720F07F4C80EA03007A
:1041500023F07F47ACEB070303F57C5300F00040EE
:1041600003F1FF032DE980494FEA154B09B44FEAEB
:10417000144325EA0B4E24EA03480FF2042606EB0B
:10418000132749083E785FEA320203FB0667C7F54A
:10419000000707FB06F64FEA54374FEAD64606F10A
:1041A000020607FB066CCCF1005C4FEA1C472CEAC8
:1041B000074C07FB06F40CFB06F504EB15464FEA2B
:1041C000961634BF00204FF000404FEAD13706FB6F
:1041D00007FC4FEA1C4C0CFB0BF7D21B03FB0CF744
:1041E00061EB07010CFB0EF7B0EB074072EB1742D7
:1041F0000CFB08F734BFA2EB0742B2EB074261EBBE
:1042000017414FEA0C444FEA910706FB07FC4FEABF
:104210001C4C0CFB0BF7B0EBC74072EB573203FBA7
:104220000CF734BFA2EBC742B2EBC74261EB573188
:104230000CFB0EF7B0EBC70072EB57720CFB08F7E4
:1042400034BFA2EBC702B2EBC70261EB5771039F09
:104250004FEA816141EA921104EBCC044FEAD13775
:104260004FEA826206FB07FC42EA90124FEA806046
:104270004FEA1C4C0CFB0BF7D21B03FB0CF761EB5A
:1042800007010CFB0EF7B0EB074072EB17420CFB7B
:1042900008F734BFA2EB0742B2EB074261EB1741CC
:1042A0004FEA8C554FEA910704EB9C2406FB07FC70
:1042B0004FEA1C4C0CFB0BF7B0EBC74072EB5732CC
:1042C00003FB0CF734BFA2EBC742B2EBC74261EB72
:1042D00057310CFB0EF7B0EBC70072EB57720CFBBB
:1042E00008F734BFA2EBC702B2EBC70261EB57710C
:1042F00015EB4C254FEA816141EA92114FEA826247
:104300004FEAD13742EA901206FB07FC44F1000461
:104310004FEA80604FEA1C4C0CFB0BF7D21B03FBEF
:104320000CF761EB07010CFB0EF7B0EB074072EBEB
:1043300017420CFB08F734BFA2EB0742B2EB07426F
:1043400061EB174115EB1C154FEA813141EA9241AF
:104350004FEA823242EA90424FEA80304FEA0C76CE
:1043600044F1000448EA03434EEA0B484FF0000EC4
:10437000B2EB080C71EB030724BF624639464EEBE3
:104380000E0E4FF0000B0018524149414BEB0B0B46
:10439000B2EB080C71EB03077BF1000B24BF624604
:1043A00039464EEB0E0E4FF0000B001852414941BA
:1043B0004BEB0B0BB2EB080C71EB03077BF1000B23
:1043C00024BF624639464EEB0E0E51EA020718BF73
:1043D00046F0010616EB0E7655F1000254F100018D
:1043E00003D5BDE88901BDE80088BDE88901BDE8C5
:1043F0000048B619524141EB0101A3F10103704796
:1044000080807F7E7D7C7B7A797877767675747311
:10441000727171706F6E6E6D6C6C6B6A6A696868D0
:10442000676666656464636362616160605F5F5E66
:104430005E5D5D5C5C5B5B5A5A59595858575756DC
:104440005655555554545353525252515150505041
:104450004F4F4F4E4E4D4D4D4C4C4C4B4B4B4A4A93
:104460004A494949484848474747474646464545D7
:104470004544444444434343434242424241414110
:10448000002B9C4630D477002BD01CB54FEA370761
:1044900003B44FF010004FF01001BAF1000F06D036
:1044A000BCF1000FDCBF40F0080040F008014FF005
:1044B00000000FBCBDE810400BF1010BBBF1010F78
:1044C00008BF5FEA170722BF12F1010211F10101D3
:1044D0004FF0004143F1000300F0004043EA0000C8
:1044E0007047F9D35708D0E746EA064613F1400F64
:1044F0004FEA16461FDD13F1200FDFBF16430A46B1
:10450000002120335B42BED0C3F1200746EA0646B5
:1045100002FA07F74FEA164646EA0706C3F12007F4
:1045200022FA03F201FA07F721FA03F14FF0000330
:1045300042EA0702A7E746EA020646EA06464FEACB
:10454000164646EA0106BCBF46EA0646360C4FF060
:1045500000034FF000024FF0000194E72DE9804C7A
:104560009A46934670B491E8380007C831EA400C87
:1045700048BF34EA430C03D5FFF7E6FDFFF780FFA1
:10458000F0BCBDE8008C2DE9804C9A46934670B48F
:1045900091E8380007C810F0804F08BF13F0804F33
:1045A00003D100F005F8FFF76BFFF0BCBDE8008C0D
:1045B00020F07F4780EA030023F07F4C07EB0C03D9
:1045C000A3F57C5300F00040A3F1FE0392F0000F2E
:1045D00000F0B38095F0000F00F077802DE90149DD
:1045E0004FEA11404FEA144621EA004800FB06FC5E
:1045F00024EA064708FB06F607FB08F800FB07F766
:1046000018EB06484CEB164C4FEA124B18EB0748D8
:104610004FEA15464CEB174022EA0B4E0BFB06FC0B
:1046200025EA06470EFB06F607FB0EFE0BFB07F717
:104630001EEB064E4CEB164C4FF000061EEB074EE1
:104640004CEB174B18EB0B0840F1000018EB0E0B6E
:1046500058EB000840F100008F1A4FF000013CBFFA
:10466000C943661B14BFB5EB040C00213CBFC94312
:10467000F61B4FEA17444EEA8E0E27EA04454FEA2E
:104680001C4704FB07622CEA074C05FB07F70CFBF1
:1046900005F604FB0CFC16EB074642EB174216EB43
:1046A0000C4642EB1C421BEB060658EB0202414152
:1046B00046EA9E0601D5BDE80189B619524141EB93
:1046C0000101A3F10103BDE801894FEA14454FEA56
:1046D000114724EA054621EA074C05FB07F406FBCF
:1046E00007F70CFB06F105FB0CFC11EB074144EB53
:1046F00017444FEA124711EB0C4144EB1C4422EAE9
:10470000074C05FB07F206FB07F70CFB06F605FB5B
:104710000CFC16EB074642EB174216EB0C4642EB3D
:104720001C456A1854F1000148BF7047B619524140
:1047300041EB0101A3F10103704795F0000F37D061
:104740004FEA11424FEA144721EA024624EA074C95
:1047500002FB07F106FB07F70CFB06F402FB0CFC5F
:1047600014EB074441EB17414FEA154714EB0C4497
:1047700041EB1C4125EA074C02FB07F506FB07F756
:104780000CFB06F602FB0CFC16EB074645EB174547
:1047900016EB0C4645EB1C42121951F1000148BFC3
:1047A0007047B619524141EB0101A3F10103704773
:1047B0004FEA14454FEA114724EA054621EA074C1F
:1047C00005FB07F106FB07F70CFB06F24FF00006AE
:1047D00005FB0CFC12EB074241EB174112EB0C42BC
:1047E00051EB1C4148BF7047921841EB0101A3F106
:1047F0000103704703B401984100009850EAC120BA
:1048000018BF04204A0D18BF40F0010040F2FF72AB
:10481000B2EB515F08BF40F00200012808BF05203D
:1048200002B0704700B52DED048BB0EE409AF0EE6B
:10483000609A83B051EC190B00F0FCFB41EC180BB3
:1048400018EE100A18EE901A8DED008B002818BF94
:104850000120084320F00040C0F17F6000F1E040FB
:10486000C00F14D019EE101A19EE900A8DED009BAE
:10487000002918BF0121084320F00040C0F17F60EB
:1048800000F1E040C00F04BF0120FEF795FFB0EE3D
:10489000480A03B0F0EE680ABDEC048B00BD303866
:1048A0000A2801D2012070470020704710B5002966
:1048B0000AD00878002807D005487844FFF792FB13
:1048C000002801D0002010BD0248784410BD00002F
:1048D000A60C00009E0C000021F00042A2F16052E4
:1048E000B2F5801F01F0004328BFD2F17F6C0BD9D5
:1048F0005FEA001C43EAC20242EB507018BF7047E7
:1049000028BF20F001007047B2F5801FBCBF1846D9
:1049100070474FEA410C1CF5001F02D2084600F018
:10492000B5BD70B500F0FCFA00000089FFF7F6BFD6
:104930004FF00040A0F580007047000010B591EAEC
:10494000030F48BF83F0004300F14884841A71EBE1
:10495000030C05D2121943EB0C03001B61EB0C0195
:10496000DFF824E14FEA1154A4EB135C1EEA430F75
:1049700018BF9EEA445F73D023EA0E03DCF1200ED9
:1049800021EA045143F4801332D322FA0CFE10EBD7
:104990000E0023FA0CFE41EB0E01CCF1200E03FABF
:1049A0000EFE10EB0E0051F10001B1F5801FCCF1AD
:1049B000200E32D201EB045112FA0EF2BDE8104083
:1049C00058BF7047401C38BF5FEA420218BF7047AB
:1049D000002814BF20F0010041F100014FEA41031B
:1049E00013F5001F38BF7047A1F1C04100F0E6BACF
:1049F000012A43EB0302ACF1200CDCF11F0E32BFA5
:104A00004FF0000E23FA0CF310EB030041EB0451BE
:104A1000B4EB115FD0D0A1EB045101F5801149082E
:104A20005FEA300001EB04510ED350F1000038BFB3
:104A300012FA0EFE08D1BDE81040C9E7401C38BF8D
:104A40005FEA4202CAD1C3E7BDE810404FEA410322
:104A500013F5001F38BF7047A1F1C04100F0AEBA96
:104A60009EEA445F08D011EA5E0FBDE8104004BF23
:104A700001F0004100207047BDE8104070B500F023
:104A80004FFA00BF64FBBE3E0000E0FF491058BF74
:104A9000C1F140415B1058BFC3F140438B42EFF37B
:104AA000008070472DE9C04130B4DFF8A0C23CEA75
:104AB000111418BF3CEA131400F0EC8081EA0305DE
:104AC0001CEA111444EAD57418BF1CEA131500F04F
:104AD000C780A4EB05044FF0004545EAC12145EA33
:104AE000C32341EA505143EA525304F17F7499427F
:104AF00004F500344FEAC0204FEAC22208BF9042BA
:104B000000F09C804FEA13650FF24016765D4FEA85
:104B1000134506FB05F7C7F1807706FB07F74FEA59
:104B2000D737A7FB03687642C8F58038A7FB06CEC7
:104B300038BFA8F1010807FB08E64FF0000EA6FBFE
:104B4000028CE6FB03CEDCF1000CCEF1004E38BF48
:104B5000AEF1010EA6FB0C584FF000074FF0000518
:104B6000E6FB0E87A1FB08C6A0FB07CE16EB0E06E0
:104B700045F10005E1FB076515F1E04E7EBFA4F5A8
:104B800080345FEA46066D4116F1800745F1000565
:104B90004FEA17274FEA066647EA0567A6F1DE46A1
:104BA000B6F1805F4FEA15251FD9384624F0010C75
:104BB00005EBC471BCF1FE6F01EB0C1102D8F0BC27
:104BC000BDE8008124425CBF01F5801E9EEAC47FDF
:104BD00002D4F0BCBDE80081244238D4F0BCA1F17D
:104BE000C041BDE8004100F0E9B94FEAD22242EAF3
:104BF00043524FEAD323A7FB02864FEAD02040EA74
:104C0000415007FB03661EEA0E0F4FEAD12105FB58
:104C1000026658BFA6EB0056B6EB00564FEA520E9E
:104C20004EEAC37E18EB0E0E56EB530EBDD518EBB5
:104C300002085E417F1C55F10005B6E74FF4801570
:104C40004FF000074FF000064FF00008ADE7F0BC52
:104C50004FF0000001F1C04101F00041BDE80081CA
:104C600011EA0C1F0CEA131500D00CE013EA0C1F1C
:104C700000F025804FF00000F0BC81EA030101F054
:104C80000041BDE80081F0BCBDE8004181EA0301BC
:104C900000F094B9F0BCBDE8004170B500F040F9F7
:104CA000097EFC3E00F007B881EA03014FF00000E6
:104CB00001F00041704781EA030100F07FB9F0BCC8
:104CC000BDE800414FF0000021497047FFFDFBF9AE
:104CD000F7F5F4F2F0EEEDEBE9E8E6E4E3E1E0DE2F
:104CE000DDDBDAD8D7D5D4D3D1D0CFCDCCCBCAC8A1
:104CF000C7C6C5C4C2C1C0BFBEBDBCBBBAB9B8B7C8
:104D0000B6B5B4B3B2B1B0AFAEADACABAAA9A8A8BA
:104D1000A7A6A5A4A3A3A2A1A09F9F9E9D9C9C9B88
:104D20009A99999897979695959493939291919033
:104D30008F8F8E8E8D8C8C8B8B8A898988888787C4
:104D40008685858484838382828181800000FF0739
:104D50000000F87F51EA030C17D41CF5801F58BFE0
:104D6000BCF5801F00F10680994218BF704708BF4C
:104D70009042704707D711F5801F58BF13F5801F69
:104D800019D499427047894270471CF5801F08D595
:104D9000BCF5801FF7D58B4218BF704708BF824211
:104DA00070474FF4001C1CEB410F38BF1CEB430F46
:104DB00001D28B42704770B500F0B2F892244900DE
:104DC0004FF000514FF08053FFF760BEDFF848C14D
:104DD00070B51CEA111E1EBF1CEA13159EEA0C0FCB
:104DE00095EA0C0F00F06F8081EA030423EA4C136C
:104DF0004EEAD47E21EA4C1141F4801143F4801331
:104E0000AE44A1FB024CA0FB0365AEF17F7E3619D8
:104E100055EB0C05A1FB034C4CF10003A0FB021C5D
:104E200016EB0C06654153F10003094218BF46F02A
:104E3000010613F4007F0BD14FEA03314FEA05302E
:104E4000340341EA155140EA16506FF003020AE0BC
:104E50004FEAC3214FEAC520F40241EA555140EA26
:104E600056506FF0020202EB2E4201EB025585EA2A
:104E7000CE710AD05FEA440C18BF24F0004450F110
:104E8000000041F1000120EAD47040F2FE7C62454E
:104E900000D270BDA84214BF4FF080444FF0404490
:104EA000002E08BF0024BEF1806FA8BFA1F1C04151
:104EB000BDE8704080F282804FF0000001F1C041F7
:104EC00001F0004170479EEA0C0F0CEA131518BF61
:104ED00095EA0C0F06D04FF0000081EA030E0EF0A9
:104EE000004170BD00F01CF88900013E00F007B8D9
:104EF00000F009B84FEA430C5FEA5C5C08D081EA35
:104F0000030100F05BB84FEA410C5FEA5C5CF6D14C
:104F10004FF00000014970470000FF070000F87FD4
:104F20000EF1020E2EF0030E5EF8046B364205D42D
:104F3000012A43EB030515F5001F12D8012841EBA8
:104F4000010C1CF5001F0CD80ED14FEAD17C15F5D1
:104F5000001F0CEB4C0C0CF1020C08BF4CEBD37C8B
:104F600004E04FF0080C01E04FEAD37C0CEB4C0559
:104F700026FA05F606F00706B6F1040C06D20EEB8B
:104F8000860CBDE870404CF0010C6047DFE80CF087
:104F9000090B02024FF000414FF00000A1F5002183
:104FA00070BD19461046012851EB010418BFD4F515
:104FB000001484BF002001F0004170BD0808A0F576
:104FC00000114FEA3101704753EA010C17D41CF568
:104FD000801F58BFBCF5801F00F106808B4218BFB0
:104FE000704708BF8242704707D713F5801F58BF2C
:104FF00011F5801F19D48B4270479B4270471CF5F6
:10500000801F08D5BCF5801FF7D5994218BF70479F
:1050100008BF904270474FF4001C1CEB430F38BF91
:105020001CEB410F01D2994270470FB40CBC03BC7A
:10503000FFF7C1BE2DE9F04101F5801CBCF5001F52
:10504000C0F2A9804FEA115C21EA0C510CF1FD0C71
:1050500041F480115FEA5C0C0CF5C07C01D3400088
:10506000494130A4890241EA905187028E0E0A0C10
:10507000A45D04FB04F602FB06F6C6F14046A4FB61
:105080000662F60D46EA422606FB06F4A4FB01235F
:105090005242C3F1404338BF5B1EA6FB02420024CC
:1050A000E6FB0324D20B42EA4446A6FB0623A1FBFF
:1050B00002E2A3FB07E4E3FB61426442C2F1404E1B
:1050C00038BFAEF1010EA6FB04234FF00002E6FB51
:1050D0000E32A2FB03463400E2FB6264A1FB06E64B
:1050E000A4FB07E8E4FB61687642C8F1405838BF8A
:1050F000A8F10108A2FB06E4A3FB08E5E2FB685463
:10510000A1FB05E6A7FB04E8E1FB648618F1200596
:1051100056F10006A809A8F11B08B10908F03F08DC
:10512000B8F10A0F40EA86601CD901EB0C51BDE8CA
:10513000F08100BFFCF5EEE8E2DDD8D3CFCBC7C3EA
:10514000C0BDB9B6B4B1AEACA9A7A5A3A19F9D9BA4
:105150009A9896959392908F8D8C8B898887868567
:1051600084838281A0FB006800FB01F208EB420807
:10517000B8EB872807D5341858EB0104D5D5401C67
:1051800051F10001D1E7341A78EB0104CDD4401E6F
:1051900071F10001C9E75FEA4C0C5FEA9C5C0DD13C
:1051A00005D34FF0000001F00041BDE8F081BDE8FB
:1051B000F04170B5FFF7B4FE6DDBFFBEBDE8F04116
:1051C0004FF00000004970470000F87F10B591EAE9
:1051D000030F48BF83F000433FF5B8AB841A71EB6F
:1051E000030C07D212198CF0004C43EB0C03001B8C
:1051F00061EB0C01DFF8A4E14FEA1154A4EB135C5E
:105200001EEA430F18BF9EEA445F00F0B08023EA15
:105210006E03524221EA0451C3EB6E0338BF5B1E9A
:10522000DCF1200E25D322FA0CFE10EB0E0043FA1F
:105230000CFE41EB0E01CCF1200E03FA0EFE10EB3A
:105240000E0051F10001CCF1200E29D412FA0EF219
:1052500001EB0451BDE8104058BF7047401C1CBF13
:10526000B2F1004F704700280CBF491C20F001002C
:10527000704712EB020E43EB030218BF4FF0010E12
:105280004EEA4202ACF1200CDCF11E0E54D943FA76
:105290000CFE10EB0E0051F1FF31CCF11E0ED5D5F6
:1052A0000EF1010E12FA0EFE404141EB010101EB3D
:1052B000445C5FEA5C5C10D910EBDE7001EB0451DA
:1052C00038BFBEF1004FBDE8104018BF704700283E
:1052D0000CBF491C20F00100704730D24FEAD42C9B
:1052E00011F5001124F400641BD0B1FA81F20B3ADD
:1052F000A41AA41ED2F12003914030FA03F31943FB
:10530000904001EBCC71002C01EB0451BDE8104042
:10531000A8BF704701F1C0414FF0000001F000410B
:105320007047B0FA80F310FA03F100D110BDE41A0F
:10533000173C4805C90AE4E701EB045110BD4910C8
:1053400001EB0451BDE810404FEA300002E04FF09D
:10535000000170474A0008BF0042F8D0B2F5001FB4
:1053600028BF704701F000414FF0000070479EEAEF
:10537000445F07D011EA5E0FBDE8104004BF002172
:1053800000207047BDE8104070B5FFF7C9FD00BFB1
:1053900040DFF63E83F00041104670470000E0FF1A
:1053A00043004FEAD30C4FEA3C0C43401FBF400779
:1053B0000CF1605113F0FE4F70471CF0006F03D1E9
:1053C00000200CF0004170470CF0004343EA50709D
:1053D00010B540EACC0000F00EF800BF00000092CB
:1053E0004FEA0001FFF7EABD4FF000414FF0000027
:1053F000A1F5002170470EF1020E2EF0030E5EF8AB
:10540000044B244204D44FEA4102B2F17F4F11D839
:105410004FEA4003B3F17F4F0CD80ED14FEAD07C56
:10542000B2F17F4F0CEB4C0C0CF1020C08BF4CEBB3
:10543000D17C04E04FF0080C01E04FEAD17C0CEB8A
:105440004C0324FA03F404F00704B4F1040C06D26C
:105450000EEB840CBDE810404CF0010C6047DFE817
:105460000CF0070802024FF00040A0F5800010BDCC
:105470000846420018BFD2F1807288BF00F0004099
:1054800010BD4FF04070E1EE100A7047FF2141EA75
:10549000D050C0057047FEF7C7BA040000080000EE
:1054A00000000000000200010000100002400000A7
:1054B000000000A00000000005400000000000C83F
:1054C000000000000C4000000000409C00000000B4
:1054D000194000000020BCBE000000003440000065
:1054E000BFC91B8E00000004B5400000504BCFD058
:1054F0006607E2CF010000006C4100003E8251AA25
:10550000DFEEA73401000000D9420000DCB5A0E2C4
:105510003A301F97FFFFFFFFB4450000FD25A0C8EC
:10552000E9A3C14FFFFFFFFFFF3F00000000008025
:1055300000000000FF3F00000000008000000000AD
:105540007C5500080000002050000000C401000845
:10555000CC55000850000020980A0000E001000827
:105560001C00000043000000F8FFFFFF0C000000DB
:105570000E0000000F0000002E00000000000000E0
:10558000007A030A0000000000000000010203048A
:1055900006070809000000000000000000000000ED
:1055A00000000000000000000000000000000000FB
:1055B00000000000000000000000000000000102E8
:0C55C000030401020304060708090000B0
:040000050800018965
:00000001FF
